{
  "contractName": "Medicare",
  "abi": [
    {
      "inputs": [
        {
          "internalType": "address",
          "name": "daiAddress",
          "type": "address"
        }
      ],
      "stateMutability": "nonpayable",
      "type": "constructor"
    },
    {
      "anonymous": false,
      "inputs": [
        {
          "indexed": false,
          "internalType": "uint256",
          "name": "id",
          "type": "uint256"
        },
        {
          "indexed": false,
          "internalType": "address payable",
          "name": "user",
          "type": "address"
        },
        {
          "indexed": false,
          "internalType": "string",
          "name": "name",
          "type": "string"
        },
        {
          "indexed": false,
          "internalType": "string",
          "name": "deliverAddress",
          "type": "string"
        },
        {
          "indexed": false,
          "internalType": "uint256",
          "name": "totalTransaction",
          "type": "uint256"
        }
      ],
      "name": "NewClient",
      "type": "event"
    },
    {
      "anonymous": false,
      "inputs": [
        {
          "indexed": false,
          "internalType": "address",
          "name": "cAddress",
          "type": "address"
        },
        {
          "indexed": false,
          "internalType": "uint256",
          "name": "id",
          "type": "uint256"
        }
      ],
      "name": "NewClientAddress",
      "type": "event"
    },
    {
      "anonymous": false,
      "inputs": [
        {
          "indexed": false,
          "internalType": "uint256",
          "name": "id",
          "type": "uint256"
        },
        {
          "indexed": false,
          "internalType": "string",
          "name": "name",
          "type": "string"
        },
        {
          "indexed": false,
          "internalType": "string",
          "name": "formulaName",
          "type": "string"
        },
        {
          "indexed": false,
          "internalType": "string",
          "name": "description",
          "type": "string"
        },
        {
          "indexed": false,
          "internalType": "uint256",
          "name": "price",
          "type": "uint256"
        },
        {
          "indexed": false,
          "internalType": "uint256",
          "name": "remainingStock",
          "type": "uint256"
        }
      ],
      "name": "NewMedicine",
      "type": "event"
    },
    {
      "anonymous": false,
      "inputs": [
        {
          "indexed": false,
          "internalType": "uint256",
          "name": "orderId",
          "type": "uint256"
        },
        {
          "indexed": false,
          "internalType": "uint256",
          "name": "productId",
          "type": "uint256"
        },
        {
          "indexed": false,
          "internalType": "uint256",
          "name": "clientId",
          "type": "uint256"
        },
        {
          "indexed": false,
          "internalType": "uint256",
          "name": "clientTransactionId",
          "type": "uint256"
        },
        {
          "indexed": false,
          "internalType": "uint256",
          "name": "quantity",
          "type": "uint256"
        },
        {
          "indexed": false,
          "internalType": "uint256",
          "name": "orderDate",
          "type": "uint256"
        },
        {
          "indexed": false,
          "internalType": "string",
          "name": "status",
          "type": "string"
        }
      ],
      "name": "NewOrder",
      "type": "event"
    },
    {
      "inputs": [],
      "name": "admin",
      "outputs": [
        {
          "internalType": "address",
          "name": "",
          "type": "address"
        }
      ],
      "stateMutability": "view",
      "type": "function",
      "constant": true
    },
    {
      "inputs": [
        {
          "internalType": "address",
          "name": "",
          "type": "address"
        }
      ],
      "name": "clientAddresses",
      "outputs": [
        {
          "internalType": "address",
          "name": "cAddress",
          "type": "address"
        },
        {
          "internalType": "uint256",
          "name": "id",
          "type": "uint256"
        }
      ],
      "stateMutability": "view",
      "type": "function",
      "constant": true
    },
    {
      "inputs": [
        {
          "internalType": "uint256",
          "name": "",
          "type": "uint256"
        }
      ],
      "name": "clients",
      "outputs": [
        {
          "internalType": "uint256",
          "name": "id",
          "type": "uint256"
        },
        {
          "internalType": "address payable",
          "name": "user",
          "type": "address"
        },
        {
          "internalType": "string",
          "name": "name",
          "type": "string"
        },
        {
          "internalType": "string",
          "name": "deliverAddress",
          "type": "string"
        },
        {
          "internalType": "uint256",
          "name": "totalTransaction",
          "type": "uint256"
        }
      ],
      "stateMutability": "view",
      "type": "function",
      "constant": true
    },
    {
      "inputs": [],
      "name": "dai",
      "outputs": [
        {
          "internalType": "contract IERC20",
          "name": "",
          "type": "address"
        }
      ],
      "stateMutability": "view",
      "type": "function",
      "constant": true
    },
    {
      "inputs": [
        {
          "internalType": "uint256",
          "name": "",
          "type": "uint256"
        }
      ],
      "name": "medicines",
      "outputs": [
        {
          "internalType": "uint256",
          "name": "id",
          "type": "uint256"
        },
        {
          "internalType": "string",
          "name": "name",
          "type": "string"
        },
        {
          "internalType": "string",
          "name": "formulaName",
          "type": "string"
        },
        {
          "internalType": "string",
          "name": "description",
          "type": "string"
        },
        {
          "internalType": "uint256",
          "name": "price",
          "type": "uint256"
        },
        {
          "internalType": "uint256",
          "name": "remainingStock",
          "type": "uint256"
        }
      ],
      "stateMutability": "view",
      "type": "function",
      "constant": true
    },
    {
      "inputs": [
        {
          "internalType": "uint256",
          "name": "",
          "type": "uint256"
        },
        {
          "internalType": "uint256",
          "name": "",
          "type": "uint256"
        }
      ],
      "name": "orders",
      "outputs": [
        {
          "internalType": "uint256",
          "name": "orderId",
          "type": "uint256"
        },
        {
          "internalType": "uint256",
          "name": "productId",
          "type": "uint256"
        },
        {
          "internalType": "uint256",
          "name": "clientId",
          "type": "uint256"
        },
        {
          "internalType": "uint256",
          "name": "clientTransactionId",
          "type": "uint256"
        },
        {
          "internalType": "uint256",
          "name": "quantity",
          "type": "uint256"
        },
        {
          "internalType": "uint256",
          "name": "orderDate",
          "type": "uint256"
        },
        {
          "internalType": "string",
          "name": "status",
          "type": "string"
        }
      ],
      "stateMutability": "view",
      "type": "function",
      "constant": true
    },
    {
      "inputs": [],
      "name": "totalClients",
      "outputs": [
        {
          "internalType": "uint256",
          "name": "",
          "type": "uint256"
        }
      ],
      "stateMutability": "view",
      "type": "function",
      "constant": true
    },
    {
      "inputs": [],
      "name": "totalMedicines",
      "outputs": [
        {
          "internalType": "uint256",
          "name": "",
          "type": "uint256"
        }
      ],
      "stateMutability": "view",
      "type": "function",
      "constant": true
    },
    {
      "inputs": [],
      "name": "totalOrders",
      "outputs": [
        {
          "internalType": "uint256",
          "name": "",
          "type": "uint256"
        }
      ],
      "stateMutability": "view",
      "type": "function",
      "constant": true
    },
    {
      "inputs": [
        {
          "internalType": "string",
          "name": "_name",
          "type": "string"
        },
        {
          "internalType": "string",
          "name": "_formulaName",
          "type": "string"
        },
        {
          "internalType": "string",
          "name": "_description",
          "type": "string"
        },
        {
          "internalType": "uint256",
          "name": "_price",
          "type": "uint256"
        },
        {
          "internalType": "uint256",
          "name": "_stock",
          "type": "uint256"
        }
      ],
      "name": "addMedicine",
      "outputs": [],
      "stateMutability": "nonpayable",
      "type": "function"
    },
    {
      "inputs": [
        {
          "internalType": "string",
          "name": "_name",
          "type": "string"
        },
        {
          "internalType": "string",
          "name": "_deliverAddress",
          "type": "string"
        }
      ],
      "name": "addClient",
      "outputs": [],
      "stateMutability": "nonpayable",
      "type": "function"
    },
    {
      "inputs": [
        {
          "internalType": "uint256",
          "name": "_medicineId",
          "type": "uint256"
        },
        {
          "internalType": "uint256",
          "name": "_quantity",
          "type": "uint256"
        }
      ],
      "name": "addOrder",
      "outputs": [],
      "stateMutability": "nonpayable",
      "type": "function"
    },
    {
      "inputs": [
        {
          "internalType": "uint256",
          "name": "_id",
          "type": "uint256"
        },
        {
          "internalType": "string",
          "name": "_name",
          "type": "string"
        },
        {
          "internalType": "string",
          "name": "_formulaName",
          "type": "string"
        },
        {
          "internalType": "string",
          "name": "_description",
          "type": "string"
        },
        {
          "internalType": "uint256",
          "name": "_price",
          "type": "uint256"
        },
        {
          "internalType": "uint256",
          "name": "_stock",
          "type": "uint256"
        }
      ],
      "name": "updateMedicine",
      "outputs": [],
      "stateMutability": "nonpayable",
      "type": "function"
    },
    {
      "inputs": [
        {
          "internalType": "string",
          "name": "_name",
          "type": "string"
        },
        {
          "internalType": "string",
          "name": "_deliverAddress",
          "type": "string"
        }
      ],
      "name": "updateClient",
      "outputs": [],
      "stateMutability": "nonpayable",
      "type": "function"
    },
    {
      "inputs": [
        {
          "internalType": "uint256",
          "name": "_userId",
          "type": "uint256"
        },
        {
          "internalType": "uint256",
          "name": "_orderIndex",
          "type": "uint256"
        }
      ],
      "name": "updateOrder",
      "outputs": [],
      "stateMutability": "nonpayable",
      "type": "function"
    },
    {
      "inputs": [
        {
          "internalType": "uint256",
          "name": "amount",
          "type": "uint256"
        }
      ],
      "name": "pay",
      "outputs": [],
      "stateMutability": "nonpayable",
      "type": "function"
    },
    {
      "inputs": [
        {
          "internalType": "string",
          "name": "a",
          "type": "string"
        },
        {
          "internalType": "string",
          "name": "b",
          "type": "string"
        }
      ],
      "name": "compareStrings",
      "outputs": [
        {
          "internalType": "bool",
          "name": "",
          "type": "bool"
        }
      ],
      "stateMutability": "view",
      "type": "function",
      "constant": true
    }
  ],
  "bytecode": "0x608060405260006002556000600355600060045534801561001f57600080fd5b5060405161376b38038061376b8339818101604052602081101561004257600080fd5b8101908080519060200190929190505050336000806101000a81548173ffffffffffffffffffffffffffffffffffffffff021916908373ffffffffffffffffffffffffffffffffffffffff16021790555080600160006101000a81548173ffffffffffffffffffffffffffffffffffffffff021916908373ffffffffffffffffffffffffffffffffffffffff16021790555050613687806100e46000396000f3fe608060405234801561001057600080fd5b506004361061010b5760003560e01c8063b94a000f116100a2578063c85e766d11610071578063c85e766d14610b48578063f28db6c414610cdc578063f4b9fa7514610d14578063f851a44014610d5e578063f88af21d14610da85761010b565b8063b94a000f146108b7578063bed34bba14610992578063c290d69114610afc578063c50fb20314610b2a5761010b565b8063587b71a6116100de578063587b71a6146103295780639202b8301461036157806398173ff41461056857806399ac79d1146106ba5761010b565b806304c8e5ba146101105780630e08b0e31461019b5780631d834409146101b95780633666af23146101d7575b600080fd5b6101526004803603602081101561012657600080fd5b81019080803573ffffffffffffffffffffffffffffffffffffffff169060200190929190505050610efc565b604051808373ffffffffffffffffffffffffffffffffffffffff1673ffffffffffffffffffffffffffffffffffffffff1681526020018281526020019250505060405180910390f35b6101a3610f40565b6040518082815260200191505060405180910390f35b6101c1610f46565b6040518082815260200191505060405180910390f35b610327600480360360408110156101ed57600080fd5b810190808035906020019064010000000081111561020a57600080fd5b82018360208201111561021c57600080fd5b8035906020019184600183028401116401000000008311171561023e57600080fd5b91908080601f016020809104026020016040519081016040528093929190818152602001838380828437600081840152601f19601f820116905080830192505050505050509192919290803590602001906401000000008111156102a157600080fd5b8201836020820111156102b357600080fd5b803590602001918460018302840111640100000000831117156102d557600080fd5b91908080601f016020809104026020016040519081016040528093929190818152602001838380828437600081840152601f19601f820116905080830192505050505050509192919290505050610f4c565b005b61035f6004803603604081101561033f57600080fd5b81019080803590602001909291908035906020019092919050505061148d565b005b610566600480360360c081101561037757600080fd5b81019080803590602001909291908035906020019064010000000081111561039e57600080fd5b8201836020820111156103b057600080fd5b803590602001918460018302840111640100000000831117156103d257600080fd5b91908080601f016020809104026020016040519081016040528093929190818152602001838380828437600081840152601f19601f8201169050808301925050505050505091929192908035906020019064010000000081111561043557600080fd5b82018360208201111561044757600080fd5b8035906020019184600183028401116401000000008311171561046957600080fd5b91908080601f016020809104026020016040519081016040528093929190818152602001838380828437600081840152601f19601f820116905080830192505050505050509192919290803590602001906401000000008111156104cc57600080fd5b8201836020820111156104de57600080fd5b8035906020019184600183028401116401000000008311171561050057600080fd5b91908080601f016020809104026020016040519081016040528093929190818152602001838380828437600081840152601f19601f8201169050808301925050505050505091929192908035906020019092919080359060200190929190505050611759565b005b6106b86004803603604081101561057e57600080fd5b810190808035906020019064010000000081111561059b57600080fd5b8201836020820111156105ad57600080fd5b803590602001918460018302840111640100000000831117156105cf57600080fd5b91908080601f016020809104026020016040519081016040528093929190818152602001838380828437600081840152601f19601f8201169050808301925050505050505091929192908035906020019064010000000081111561063257600080fd5b82018360208201111561064457600080fd5b8035906020019184600183028401116401000000008311171561066657600080fd5b91908080601f016020809104026020016040519081016040528093929190818152602001838380828437600081840152601f19601f820116905080830192505050505050509192919290505050611c77565b005b6108b5600480360360a08110156106d057600080fd5b81019080803590602001906401000000008111156106ed57600080fd5b8201836020820111156106ff57600080fd5b8035906020019184600183028401116401000000008311171561072157600080fd5b91908080601f016020809104026020016040519081016040528093929190818152602001838380828437600081840152601f19601f8201169050808301925050505050505091929192908035906020019064010000000081111561078457600080fd5b82018360208201111561079657600080fd5b803590602001918460018302840111640100000000831117156107b857600080fd5b91908080601f016020809104026020016040519081016040528093929190818152602001838380828437600081840152601f19601f8201169050808301925050505050505091929192908035906020019064010000000081111561081b57600080fd5b82018360208201111561082d57600080fd5b8035906020019184600183028401116401000000008311171561084f57600080fd5b91908080601f016020809104026020016040519081016040528093929190818152602001838380828437600081840152601f19601f8201169050808301925050505050505091929192908035906020019092919080359060200190929190505050612012565b005b6108ed600480360360408110156108cd57600080fd5b81019080803590602001909291908035906020019092919050505061229f565b6040518088815260200187815260200186815260200185815260200184815260200183815260200180602001828103825283818151815260200191508051906020019080838360005b83811015610951578082015181840152602081019050610936565b50505050905090810190601f16801561097e5780820380516001836020036101000a031916815260200191505b509850505050505050505060405180910390f35b610ae2600480360360408110156109a857600080fd5b81019080803590602001906401000000008111156109c557600080fd5b8201836020820111156109d757600080fd5b803590602001918460018302840111640100000000831117156109f957600080fd5b91908080601f016020809104026020016040519081016040528093929190818152602001838380828437600081840152601f19601f82011690508083019250505050505050919291929080359060200190640100000000811115610a5c57600080fd5b820183602082011115610a6e57600080fd5b80359060200191846001830284011164010000000083111715610a9057600080fd5b91908080601f016020809104026020016040519081016040528093929190818152602001838380828437600081840152601f19601f820116905080830192505050505050509192919290505050612386565b604051808215151515815260200191505060405180910390f35b610b2860048036036020811015610b1257600080fd5b8101908080359060200190929190505050612475565b005b610b326125b2565b6040518082815260200191505060405180910390f35b610b7460048036036020811015610b5e57600080fd5b81019080803590602001909291905050506125b8565b60405180878152602001806020018060200180602001868152602001858152602001848103845289818151815260200191508051906020019080838360005b83811015610bce578082015181840152602081019050610bb3565b50505050905090810190601f168015610bfb5780820380516001836020036101000a031916815260200191505b50848103835288818151815260200191508051906020019080838360005b83811015610c34578082015181840152602081019050610c19565b50505050905090810190601f168015610c615780820380516001836020036101000a031916815260200191505b50848103825287818151815260200191508051906020019080838360005b83811015610c9a578082015181840152602081019050610c7f565b50505050905090810190601f168015610cc75780820380516001836020036101000a031916815260200191505b50995050505050505050505060405180910390f35b610d1260048036036040811015610cf257600080fd5b8101908080359060200190929190803590602001909291905050506127bc565b005b610d1c6132f3565b604051808273ffffffffffffffffffffffffffffffffffffffff1673ffffffffffffffffffffffffffffffffffffffff16815260200191505060405180910390f35b610d66613319565b604051808273ffffffffffffffffffffffffffffffffffffffff1673ffffffffffffffffffffffffffffffffffffffff16815260200191505060405180910390f35b610dd460048036036020811015610dbe57600080fd5b810190808035906020019092919050505061333e565b604051808681526020018573ffffffffffffffffffffffffffffffffffffffff1673ffffffffffffffffffffffffffffffffffffffff1681526020018060200180602001848152602001838103835286818151815260200191508051906020019080838360005b83811015610e56578082015181840152602081019050610e3b565b50505050905090810190601f168015610e835780820380516001836020036101000a031916815260200191505b50838103825285818151815260200191508051906020019080838360005b83811015610ebc578082015181840152602081019050610ea1565b50505050905090810190601f168015610ee95780820380516001836020036101000a031916815260200191505b5097505050505050505060405180910390f35b60076020528060005260406000206000915090508060000160009054906101000a900473ffffffffffffffffffffffffffffffffffffffff16908060010154905082565b60045481565b60025481565b60008251118015610f5e575060008151115b610f6757600080fd5b610f6f6134c4565b600760003373ffffffffffffffffffffffffffffffffffffffff1673ffffffffffffffffffffffffffffffffffffffff1681526020019081526020016000206040518060400160405290816000820160009054906101000a900473ffffffffffffffffffffffffffffffffffffffff1673ffffffffffffffffffffffffffffffffffffffff1673ffffffffffffffffffffffffffffffffffffffff168152602001600182015481525050905060008160200151905061102c6134f4565b600660008381526020019081526020016000206040518060a0016040529081600082015481526020016001820160009054906101000a900473ffffffffffffffffffffffffffffffffffffffff1673ffffffffffffffffffffffffffffffffffffffff1673ffffffffffffffffffffffffffffffffffffffff168152602001600282018054600181600116156101000203166002900480601f0160208091040260200160405190810160405280929190818152602001828054600181600116156101000203166002900480156111435780601f1061111857610100808354040283529160200191611143565b820191906000526020600020905b81548152906001019060200180831161112657829003601f168201915b50505050508152602001600382018054600181600116156101000203166002900480601f0160208091040260200160405190810160405280929190818152602001828054600181600116156101000203166002900480156111e55780601f106111ba576101008083540402835291602001916111e5565b820191906000526020600020905b8154815290600101906020018083116111c857829003601f168201915b5050505050815260200160048201548152505090506000151561120c826040015187612386565b1515148061122b575060001515611227826060015186612386565b1515145b15611486576040518060a0016040528082600001518152602001826020015173ffffffffffffffffffffffffffffffffffffffff168152602001868152602001826060015181526020018260800151815250600660008481526020019081526020016000206000820151816000015560208201518160010160006101000a81548173ffffffffffffffffffffffffffffffffffffffff021916908373ffffffffffffffffffffffffffffffffffffffff16021790555060408201518160020190805190602001906112fd929190613539565b50606082015181600301908051906020019061131a929190613539565b50608082015181600401559050507f5bb694d60a295a0f6ea9a8b338035e43dc1ea0f735ed60f6f870e9496f649e93816000015182602001518784606001518560800151604051808681526020018573ffffffffffffffffffffffffffffffffffffffff1673ffffffffffffffffffffffffffffffffffffffff1681526020018060200180602001848152602001838103835286818151815260200191508051906020019080838360005b838110156113e05780820151818401526020810190506113c5565b50505050905090810190601f16801561140d5780820380516001836020036101000a031916815260200191505b50838103825285818151815260200191508051906020019080838360005b8381101561144657808201518184015260208101905061142b565b50505050905090810190601f1680156114735780820380516001836020036101000a031916815260200191505b5097505050505050505060405180910390a15b5050505050565b6114956135b9565b6008600084815260200190815260200160002060008381526020019081526020016000206040518060e0016040529081600082015481526020016001820154815260200160028201548152602001600382015481526020016004820154815260200160058201548152602001600682018054600181600116156101000203166002900480601f0160208091040260200160405190810160405280929190818152602001828054600181600116156101000203166002900480156115995780601f1061156e57610100808354040283529160200191611599565b820191906000526020600020905b81548152906001019060200180831161157c57829003601f168201915b50505050508152505090506040518060e0016040528082600001518152602001826020015181526020018260400151815260200182606001518152602001826080015181526020018260a0015181526020016040518060400160405280600981526020017f44656c6976657265640000000000000000000000000000000000000000000000815250815250600860008581526020019081526020016000206000848152602001908152602001600020600082015181600001556020820151816001015560408201518160020155606082015181600301556080820151816004015560a0820151816005015560c08201518160060190805190602001906116a0929190613539565b509050507fef6c2817df58501674afe0d9facf1944b055644d8877bb23c2d2da0571851f74816000015182602001518360400151846060015185608001518660a001516040518087815260200186815260200185815260200184815260200183815260200182815260200180602001828103825260098152602001807f44656c697665726564000000000000000000000000000000000000000000000081525060200197505050505050505060405180910390a1505050565b6000855111801561176b575060008451115b8015611778575060008351115b61178157600080fd5b6117896135f6565b600560008881526020019081526020016000206040518060c001604052908160008201548152602001600182018054600181600116156101000203166002900480601f01602080910402602001604051908101604052809291908181526020018280546001816001161561010002031660029004801561184a5780601f1061181f5761010080835404028352916020019161184a565b820191906000526020600020905b81548152906001019060200180831161182d57829003601f168201915b50505050508152602001600282018054600181600116156101000203166002900480601f0160208091040260200160405190810160405280929190818152602001828054600181600116156101000203166002900480156118ec5780601f106118c1576101008083540402835291602001916118ec565b820191906000526020600020905b8154815290600101906020018083116118cf57829003601f168201915b50505050508152602001600382018054600181600116156101000203166002900480601f01602080910402602001604051908101604052809291908181526020018280546001816001161561010002031660029004801561198e5780601f106119635761010080835404028352916020019161198e565b820191906000526020600020905b81548152906001019060200180831161197157829003601f168201915b50505050508152602001600482015481526020016005820154815250509050600081600001519050600015156119c8836020015189612386565b151514806119e75750600015156119e3836040015188612386565b1515145b80611a035750600015156119ff836060015187612386565b1515145b80611a12575083826080015114155b80611a215750828260a0015114155b15611c6d576040518060c001604052808281526020018881526020018781526020018681526020018581526020018481525060056000838152602001908152602001600020600082015181600001556020820151816001019080519060200190611a8c929190613539565b506040820151816002019080519060200190611aa9929190613539565b506060820151816003019080519060200190611ac6929190613539565b506080820151816004015560a082015181600501559050507fab71ca495700db77ce9ab678bb1efbff2266f18c199d4d5a55dd942236d3ac3881888888888860405180878152602001806020018060200180602001868152602001858152602001848103845289818151815260200191508051906020019080838360005b83811015611b5f578082015181840152602081019050611b44565b50505050905090810190601f168015611b8c5780820380516001836020036101000a031916815260200191505b50848103835288818151815260200191508051906020019080838360005b83811015611bc5578082015181840152602081019050611baa565b50505050905090810190601f168015611bf25780820380516001836020036101000a031916815260200191505b50848103825287818151815260200191508051906020019080838360005b83811015611c2b578082015181840152602081019050611c10565b50505050905090810190601f168015611c585780820380516001836020036101000a031916815260200191505b50995050505050505050505060405180910390a15b5050505050505050565b60008251118015611c89575060008151115b611c9257600080fd5b6004600081548092919060010191905055506040518060a0016040528060045481526020013373ffffffffffffffffffffffffffffffffffffffff16815260200183815260200182815260200160008152506006600060045481526020019081526020016000206000820151816000015560208201518160010160006101000a81548173ffffffffffffffffffffffffffffffffffffffff021916908373ffffffffffffffffffffffffffffffffffffffff1602179055506040820151816002019080519060200190611d66929190613539565b506060820151816003019080519060200190611d83929190613539565b506080820151816004015590505060405180604001604052803373ffffffffffffffffffffffffffffffffffffffff168152602001600454815250600760003373ffffffffffffffffffffffffffffffffffffffff1673ffffffffffffffffffffffffffffffffffffffff16815260200190815260200160002060008201518160000160006101000a81548173ffffffffffffffffffffffffffffffffffffffff021916908373ffffffffffffffffffffffffffffffffffffffff160217905550602082015181600101559050507f5bb694d60a295a0f6ea9a8b338035e43dc1ea0f735ed60f6f870e9496f649e936004543384846000604051808681526020018573ffffffffffffffffffffffffffffffffffffffff1673ffffffffffffffffffffffffffffffffffffffff1681526020018060200180602001848152602001838103835286818151815260200191508051906020019080838360005b83811015611efc578082015181840152602081019050611ee1565b50505050905090810190601f168015611f295780820380516001836020036101000a031916815260200191505b50838103825285818151815260200191508051906020019080838360005b83811015611f62578082015181840152602081019050611f47565b50505050905090810190601f168015611f8f5780820380516001836020036101000a031916815260200191505b5097505050505050505060405180910390a17fc4bc3ddeb69eba83178f1b7ee16bc7847b2c474d6c4368a58a027f6bf54ff0e433600454604051808373ffffffffffffffffffffffffffffffffffffffff1673ffffffffffffffffffffffffffffffffffffffff1681526020018281526020019250505060405180910390a15050565b60008551118015612024575060008451115b8015612031575060008351115b61203a57600080fd5b6003600081548092919060010191905055506040518060c001604052806003548152602001868152602001858152602001848152602001838152602001828152506005600060035481526020019081526020016000206000820151816000015560208201518160010190805190602001906120b6929190613539565b5060408201518160020190805190602001906120d3929190613539565b5060608201518160030190805190602001906120f0929190613539565b506080820151816004015560a082015181600501559050507fab71ca495700db77ce9ab678bb1efbff2266f18c199d4d5a55dd942236d3ac38600354868686868660405180878152602001806020018060200180602001868152602001858152602001848103845289818151815260200191508051906020019080838360005b8381101561218b578082015181840152602081019050612170565b50505050905090810190601f1680156121b85780820380516001836020036101000a031916815260200191505b50848103835288818151815260200191508051906020019080838360005b838110156121f15780820151818401526020810190506121d6565b50505050905090810190601f16801561221e5780820380516001836020036101000a031916815260200191505b50848103825287818151815260200191508051906020019080838360005b8381101561225757808201518184015260208101905061223c565b50505050905090810190601f1680156122845780820380516001836020036101000a031916815260200191505b50995050505050505050505060405180910390a15050505050565b600860205281600052604060002060205280600052604060002060009150915050806000015490806001015490806002015490806003015490806004015490806005015490806006018054600181600116156101000203166002900480601f01602080910402602001604051908101604052809291908181526020018280546001816001161561010002031660029004801561237c5780601f106123515761010080835404028352916020019161237c565b820191906000526020600020905b81548152906001019060200180831161235f57829003601f168201915b5050505050905087565b6000816040516020018082805190602001908083835b602083106123bf578051825260208201915060208101905060208303925061239c565b6001836020036101000a03801982511681845116808217855250505050505090500191505060405160208183030381529060405280519060200120836040516020018082805190602001908083835b60208310612431578051825260208201915060208101905060208303925061240e565b6001836020036101000a0380198251168184511680821785525050505050509050019150506040516020818303038152906040528051906020012014905092915050565b600160009054906101000a900473ffffffffffffffffffffffffffffffffffffffff1673ffffffffffffffffffffffffffffffffffffffff166323b872dd336000809054906101000a900473ffffffffffffffffffffffffffffffffffffffff16846040518463ffffffff1660e01b8152600401808473ffffffffffffffffffffffffffffffffffffffff1673ffffffffffffffffffffffffffffffffffffffff1681526020018373ffffffffffffffffffffffffffffffffffffffff1673ffffffffffffffffffffffffffffffffffffffff1681526020018281526020019350505050602060405180830381600087803b15801561257357600080fd5b505af1158015612587573d6000803e3d6000fd5b505050506040513d602081101561259d57600080fd5b81019080805190602001909291905050505050565b60035481565b6005602052806000526040600020600091509050806000015490806001018054600181600116156101000203166002900480601f01602080910402602001604051908101604052809291908181526020018280546001816001161561010002031660029004801561266a5780601f1061263f5761010080835404028352916020019161266a565b820191906000526020600020905b81548152906001019060200180831161264d57829003601f168201915b505050505090806002018054600181600116156101000203166002900480601f0160208091040260200160405190810160405280929190818152602001828054600181600116156101000203166002900480156127085780601f106126dd57610100808354040283529160200191612708565b820191906000526020600020905b8154815290600101906020018083116126eb57829003601f168201915b505050505090806003018054600181600116156101000203166002900480601f0160208091040260200160405190810160405280929190818152602001828054600181600116156101000203166002900480156127a65780601f1061277b576101008083540402835291602001916127a6565b820191906000526020600020905b81548152906001019060200180831161278957829003601f168201915b5050505050908060040154908060050154905086565b6127c46134c4565b600760003373ffffffffffffffffffffffffffffffffffffffff1673ffffffffffffffffffffffffffffffffffffffff1681526020019081526020016000206040518060400160405290816000820160009054906101000a900473ffffffffffffffffffffffffffffffffffffffff1673ffffffffffffffffffffffffffffffffffffffff1673ffffffffffffffffffffffffffffffffffffffff16815260200160018201548152505090506000816020015190506128816134f4565b600660008381526020019081526020016000206040518060a0016040529081600082015481526020016001820160009054906101000a900473ffffffffffffffffffffffffffffffffffffffff1673ffffffffffffffffffffffffffffffffffffffff1673ffffffffffffffffffffffffffffffffffffffff168152602001600282018054600181600116156101000203166002900480601f0160208091040260200160405190810160405280929190818152602001828054600181600116156101000203166002900480156129985780601f1061296d57610100808354040283529160200191612998565b820191906000526020600020905b81548152906001019060200180831161297b57829003601f168201915b50505050508152602001600382018054600181600116156101000203166002900480601f016020809104026020016040519081016040528092919081815260200182805460018160011615610100020316600290048015612a3a5780601f10612a0f57610100808354040283529160200191612a3a565b820191906000526020600020905b815481529060010190602001808311612a1d57829003601f168201915b5050505050815260200160048201548152505090506000600182608001510190506040518060a001604052808481526020013373ffffffffffffffffffffffffffffffffffffffff16815260200183604001518152602001836060015181526020016001846080015101815250600660008581526020019081526020016000206000820151816000015560208201518160010160006101000a81548173ffffffffffffffffffffffffffffffffffffffff021916908373ffffffffffffffffffffffffffffffffffffffff1602179055506040820151816002019080519060200190612b27929190613539565b506060820151816003019080519060200190612b44929190613539565b50608082015181600401559050507f5bb694d60a295a0f6ea9a8b338035e43dc1ea0f735ed60f6f870e9496f649e938333846040015185606001516001876080015101604051808681526020018573ffffffffffffffffffffffffffffffffffffffff1673ffffffffffffffffffffffffffffffffffffffff1681526020018060200180602001848152602001838103835286818151815260200191508051906020019080838360005b83811015612c09578082015181840152602081019050612bee565b50505050905090810190601f168015612c365780820380516001836020036101000a031916815260200191505b50838103825285818151815260200191508051906020019080838360005b83811015612c6f578082015181840152602081019050612c54565b50505050905090810190601f168015612c9c5780820380516001836020036101000a031916815260200191505b5097505050505050505060405180910390a16002600081548092919060010191905055506040518060e0016040528060025481526020018781526020018481526020018281526020018681526020014281526020016040518060400160405280600781526020017f50656e64696e6700000000000000000000000000000000000000000000000000815250815250600860008581526020019081526020016000206000838152602001908152602001600020600082015181600001556020820151816001015560408201518160020155606082015181600301556080820151816004015560a0820151816005015560c0820151816006019080519060200190612da6929190613539565b509050507fef6c2817df58501674afe0d9facf1944b055644d8877bb23c2d2da0571851f7460025487858489426040518087815260200186815260200185815260200184815260200183815260200182815260200180602001828103825260078152602001807f50656e64696e670000000000000000000000000000000000000000000000000081525060200197505050505050505060405180910390a1612e4c6135f6565b600560008881526020019081526020016000206040518060c001604052908160008201548152602001600182018054600181600116156101000203166002900480601f016020809104026020016040519081016040528092919081815260200182805460018160011615610100020316600290048015612f0d5780601f10612ee257610100808354040283529160200191612f0d565b820191906000526020600020905b815481529060010190602001808311612ef057829003601f168201915b50505050508152602001600282018054600181600116156101000203166002900480601f016020809104026020016040519081016040528092919081815260200182805460018160011615610100020316600290048015612faf5780601f10612f8457610100808354040283529160200191612faf565b820191906000526020600020905b815481529060010190602001808311612f9257829003601f168201915b50505050508152602001600382018054600181600116156101000203166002900480601f0160208091040260200160405190810160405280929190818152602001828054600181600116156101000203166002900480156130515780601f1061302657610100808354040283529160200191613051565b820191906000526020600020905b81548152906001019060200180831161303457829003601f168201915b505050505081526020016004820154815260200160058201548152505090506000868260a001510390506040518060c00160405280836000015181526020018360200151815260200183604001518152602001836060015181526020018360800151815260200182815250600560008a81526020019081526020016000206000820151816000015560208201518160010190805190602001906130f5929190613539565b506040820151816002019080519060200190613112929190613539565b50606082015181600301908051906020019061312f929190613539565b506080820151816004015560a082015181600501559050507fab71ca495700db77ce9ab678bb1efbff2266f18c199d4d5a55dd942236d3ac38826000015183602001518460400151856060015186608001518660405180878152602001806020018060200180602001868152602001858152602001848103845289818151815260200191508051906020019080838360005b838110156131dc5780820151818401526020810190506131c1565b50505050905090810190601f1680156132095780820380516001836020036101000a031916815260200191505b50848103835288818151815260200191508051906020019080838360005b83811015613242578082015181840152602081019050613227565b50505050905090810190601f16801561326f5780820380516001836020036101000a031916815260200191505b50848103825287818151815260200191508051906020019080838360005b838110156132a857808201518184015260208101905061328d565b50505050905090810190601f1680156132d55780820380516001836020036101000a031916815260200191505b50995050505050505050505060405180910390a15050505050505050565b600160009054906101000a900473ffffffffffffffffffffffffffffffffffffffff1681565b6000809054906101000a900473ffffffffffffffffffffffffffffffffffffffff1681565b60066020528060005260406000206000915090508060000154908060010160009054906101000a900473ffffffffffffffffffffffffffffffffffffffff1690806002018054600181600116156101000203166002900480601f0160208091040260200160405190810160405280929190818152602001828054600181600116156101000203166002900480156134165780601f106133eb57610100808354040283529160200191613416565b820191906000526020600020905b8154815290600101906020018083116133f957829003601f168201915b505050505090806003018054600181600116156101000203166002900480601f0160208091040260200160405190810160405280929190818152602001828054600181600116156101000203166002900480156134b45780601f10613489576101008083540402835291602001916134b4565b820191906000526020600020905b81548152906001019060200180831161349757829003601f168201915b5050505050908060040154905085565b6040518060400160405280600073ffffffffffffffffffffffffffffffffffffffff168152602001600081525090565b6040518060a0016040528060008152602001600073ffffffffffffffffffffffffffffffffffffffff1681526020016060815260200160608152602001600081525090565b828054600181600116156101000203166002900490600052602060002090601f016020900481019282601f1061357a57805160ff19168380011785556135a8565b828001600101855582156135a8579182015b828111156135a757825182559160200191906001019061358c565b5b5090506135b5919061362c565b5090565b6040518060e00160405280600081526020016000815260200160008152602001600081526020016000815260200160008152602001606081525090565b6040518060c001604052806000815260200160608152602001606081526020016060815260200160008152602001600081525090565b61364e91905b8082111561364a576000816000905550600101613632565b5090565b9056fea2646970667358221220808c9278791eeb5d460474e2a068e2118ec9b20d8f4bf79ef36323a7f2d90afb64736f6c63430006020033",
  "source": "pragma solidity >=0.6.2;\n\nimport '@openzeppelin/contracts/token/ERC20/IERC20.sol';\n\ncontract Medicare{\n    address public admin;\n    IERC20 public dai;\n\n    uint public totalOrders = 0;\n    uint public totalMedicines = 0;\n    uint public totalClients = 0;\n\n    struct Medicine{\n        uint id;\n        string name;\n        string formulaName;\n        string description;\n        uint price;\n        uint remainingStock;\n    }\n\n    struct Clients{\n        uint id;\n        address payable user;\n        string name;\n        string deliverAddress;\n        uint totalTransaction;\n    }\n\n    struct ClientAddresses{\n        address cAddress;\n        uint id;\n    }\n\n    struct Orders{\n        uint orderId;\n        uint productId;\n        uint clientId;\n        uint clientTransactionId;\n        uint quantity;\n        uint orderDate;\n        string status;\n    }\n\n    event NewMedicine(\n        uint id,\n        string name,\n        string formulaName,\n        string description,\n        uint price,\n        uint remainingStock\n        );\n\n    event NewClient(\n        uint id,\n        address payable user,\n        string name,\n        string deliverAddress,\n        uint totalTransaction\n        );\n\n    event NewClientAddress(\n        address cAddress,\n        uint id\n        );\n\n    event NewOrder(\n        uint orderId,\n        uint productId,\n        uint clientId,\n        uint clientTransactionId,\n        uint quantity,\n        uint orderDate,\n        string status\n        );\n\n    mapping(uint => Medicine) public medicines;\n    mapping(uint => Clients) public clients;\n\tmapping(address => ClientAddresses) public clientAddresses;\n\tmapping(uint => mapping(uint => Orders)) public orders;\n\n\n    constructor(address daiAddress) public {\n        admin = msg.sender;\n        dai = IERC20(daiAddress);\n    }\n\n    function addMedicine(string memory _name, string memory _formulaName, string memory _description, uint _price, uint _stock)public{\n\t\trequire((bytes(_name).length > 0) && (bytes(_formulaName).length > 0) && (bytes(_description).length > 0));\n        totalMedicines++;\n        medicines[totalMedicines] = Medicine(totalMedicines,_name,_formulaName,_description,_price,_stock);\n        emit NewMedicine(totalMedicines,_name,_formulaName,_description,_price,_stock);\n    }\n\n    function addClient(string memory _name, string memory _deliverAddress)public{\n        require((bytes(_name).length > 0) && (bytes(_deliverAddress).length > 0));\n        totalClients++;\n        clients[totalClients] = Clients(totalClients, msg.sender,_name, _deliverAddress, 0);\n        clientAddresses[msg.sender] = ClientAddresses(msg.sender, totalClients);\n        emit NewClient(totalClients, msg.sender,_name, _deliverAddress, 0);\n        emit NewClientAddress(msg.sender, totalClients);\n    }\n\n    function addOrder(uint _medicineId, uint _quantity)public{\n        ClientAddresses memory _user = clientAddresses[msg.sender];\n        uint _userId = _user.id;\n        Clients memory _clients = clients[_userId];\n        uint _orderIndex = _clients.totalTransaction+1;\n        clients[_userId] = Clients(_userId, msg.sender,_clients.name, _clients.deliverAddress, _clients.totalTransaction+1);\n        emit NewClient(_userId, msg.sender,_clients.name, _clients.deliverAddress, _clients.totalTransaction+1);\n        totalOrders++;\n        orders[_userId][_orderIndex] = Orders(totalOrders, _medicineId,_userId,_orderIndex,_quantity,block.timestamp,'Pending');\n        emit NewOrder(totalOrders, _medicineId,_userId,_orderIndex,_quantity,block.timestamp,'Pending');\n        Medicine memory _medicine = medicines[_medicineId];\n        uint _updatedStock = _medicine.remainingStock - _quantity;\n        medicines[_medicineId] = Medicine(_medicine.id, _medicine.name, _medicine.formulaName, _medicine.description, _medicine.price, _updatedStock);\n        emit NewMedicine(_medicine.id, _medicine.name, _medicine.formulaName, _medicine.description, _medicine.price, _updatedStock);\n    }\n\n    function updateMedicine(uint _id, string memory _name, string memory _formulaName, string memory _description, uint _price, uint _stock)public{\n\t\trequire((bytes(_name).length > 0) && (bytes(_formulaName).length > 0) && (bytes(_description).length > 0));\n        Medicine memory _medicine = medicines[_id];\n        uint _medicineId = _medicine.id;\n        if((compareStrings(_medicine.name, _name)==false)||(compareStrings(_medicine.formulaName,_formulaName) == false)||(compareStrings(_medicine.description,_description) == false)||(_medicine.price!=_price)||(_medicine.remainingStock!=_stock)){\n            medicines[_medicineId] = Medicine(_medicineId,_name,_formulaName,_description,_price,_stock);\n            emit NewMedicine(_medicineId,_name,_formulaName,_description,_price,_stock);\n        }\n    }\n\n    function updateClient(string memory _name, string memory _deliverAddress)public{\n        require((bytes(_name).length > 0) && (bytes(_deliverAddress).length > 0));\n        ClientAddresses memory _user = clientAddresses[msg.sender];\n        uint _userId = _user.id;\n        Clients memory _clients = clients[_userId];\n        if((compareStrings(_clients.name, _name)==false)||(compareStrings(_clients.deliverAddress,_deliverAddress) == false)){\n            clients[_userId] = Clients(_clients.id,_clients.user,_name,_clients.deliverAddress,_clients.totalTransaction);\n            emit NewClient(_clients.id,_clients.user,_name,_clients.deliverAddress,_clients.totalTransaction);\n        }\n    }\n    \n    function updateOrder(uint _userId, uint _orderIndex)public{\n        Orders memory _order = orders[_userId][_orderIndex];\n        orders[_userId][_orderIndex] = Orders(_order.orderId,_order.productId,_order.clientId,_order.clientTransactionId,_order.quantity,_order.orderDate,'Delivered');\n        emit NewOrder(_order.orderId,_order.productId,_order.clientId,_order.clientTransactionId,_order.quantity,_order.orderDate,'Delivered');\n    }\n\n    function pay(uint amount)external{\n        dai.transferFrom(msg.sender, admin, amount);\n    }\n    \n\tfunction compareStrings (string memory a, string memory b) public view returns (bool) {\n\t\treturn (keccak256(abi.encodePacked((a))) == keccak256(abi.encodePacked((b))) );\n\t}\n}",
  "sourcePath": "D:/Studies/Projects/Medicare/src/contracts/Medicare.sol",
  "compiler": {
    "name": "solc",
    "version": "0.6.2+commit.bacdbe57.Emscripten.clang"
  },
  "schemaVersion": "3.0.20",
  "updatedAt": "2021-08-01T12:07:57.467Z",
  "networkType": "ethereum",
  "devdoc": {
    "methods": {}
  },
  "userdoc": {
    "methods": {}
  }
}