{
  "contractName": "Medicare",
  "abi": [
    {
      "inputs": [
        {
          "internalType": "address",
          "name": "daiAddress",
          "type": "address"
        }
      ],
      "stateMutability": "nonpayable",
      "type": "constructor"
    },
    {
      "anonymous": false,
      "inputs": [
        {
          "indexed": false,
          "internalType": "uint256",
          "name": "id",
          "type": "uint256"
        },
        {
          "indexed": false,
          "internalType": "address payable",
          "name": "user",
          "type": "address"
        },
        {
          "indexed": false,
          "internalType": "string",
          "name": "name",
          "type": "string"
        },
        {
          "indexed": false,
          "internalType": "string",
          "name": "deliverAddress",
          "type": "string"
        },
        {
          "indexed": false,
          "internalType": "uint256",
          "name": "totalTransaction",
          "type": "uint256"
        }
      ],
      "name": "NewClient",
      "type": "event"
    },
    {
      "anonymous": false,
      "inputs": [
        {
          "indexed": false,
          "internalType": "address",
          "name": "cAddress",
          "type": "address"
        },
        {
          "indexed": false,
          "internalType": "uint256",
          "name": "id",
          "type": "uint256"
        }
      ],
      "name": "NewClientAddress",
      "type": "event"
    },
    {
      "anonymous": false,
      "inputs": [
        {
          "indexed": false,
          "internalType": "uint256",
          "name": "id",
          "type": "uint256"
        },
        {
          "indexed": false,
          "internalType": "string",
          "name": "name",
          "type": "string"
        },
        {
          "indexed": false,
          "internalType": "string",
          "name": "formulaName",
          "type": "string"
        },
        {
          "indexed": false,
          "internalType": "string",
          "name": "description",
          "type": "string"
        },
        {
          "indexed": false,
          "internalType": "uint256",
          "name": "price",
          "type": "uint256"
        },
        {
          "indexed": false,
          "internalType": "uint256",
          "name": "remainingStock",
          "type": "uint256"
        }
      ],
      "name": "NewMedicine",
      "type": "event"
    },
    {
      "anonymous": false,
      "inputs": [
        {
          "indexed": false,
          "internalType": "uint256",
          "name": "orderId",
          "type": "uint256"
        },
        {
          "indexed": false,
          "internalType": "uint256",
          "name": "productId",
          "type": "uint256"
        },
        {
          "indexed": false,
          "internalType": "uint256",
          "name": "clientId",
          "type": "uint256"
        },
        {
          "indexed": false,
          "internalType": "uint256",
          "name": "clientTransactionId",
          "type": "uint256"
        },
        {
          "indexed": false,
          "internalType": "uint256",
          "name": "quantity",
          "type": "uint256"
        },
        {
          "indexed": false,
          "internalType": "uint256",
          "name": "orderDate",
          "type": "uint256"
        },
        {
          "indexed": false,
          "internalType": "uint256",
          "name": "bill",
          "type": "uint256"
        },
        {
          "indexed": false,
          "internalType": "string",
          "name": "status",
          "type": "string"
        }
      ],
      "name": "NewOrder",
      "type": "event"
    },
    {
      "inputs": [],
      "name": "admin",
      "outputs": [
        {
          "internalType": "address",
          "name": "",
          "type": "address"
        }
      ],
      "stateMutability": "view",
      "type": "function",
      "constant": true
    },
    {
      "inputs": [
        {
          "internalType": "address",
          "name": "",
          "type": "address"
        }
      ],
      "name": "clientAddresses",
      "outputs": [
        {
          "internalType": "address",
          "name": "cAddress",
          "type": "address"
        },
        {
          "internalType": "uint256",
          "name": "id",
          "type": "uint256"
        }
      ],
      "stateMutability": "view",
      "type": "function",
      "constant": true
    },
    {
      "inputs": [
        {
          "internalType": "uint256",
          "name": "",
          "type": "uint256"
        }
      ],
      "name": "clients",
      "outputs": [
        {
          "internalType": "uint256",
          "name": "id",
          "type": "uint256"
        },
        {
          "internalType": "address payable",
          "name": "user",
          "type": "address"
        },
        {
          "internalType": "string",
          "name": "name",
          "type": "string"
        },
        {
          "internalType": "string",
          "name": "deliverAddress",
          "type": "string"
        },
        {
          "internalType": "uint256",
          "name": "totalTransaction",
          "type": "uint256"
        }
      ],
      "stateMutability": "view",
      "type": "function",
      "constant": true
    },
    {
      "inputs": [],
      "name": "dai",
      "outputs": [
        {
          "internalType": "contract IERC20",
          "name": "",
          "type": "address"
        }
      ],
      "stateMutability": "view",
      "type": "function",
      "constant": true
    },
    {
      "inputs": [
        {
          "internalType": "uint256",
          "name": "",
          "type": "uint256"
        }
      ],
      "name": "medicines",
      "outputs": [
        {
          "internalType": "uint256",
          "name": "id",
          "type": "uint256"
        },
        {
          "internalType": "string",
          "name": "name",
          "type": "string"
        },
        {
          "internalType": "string",
          "name": "formulaName",
          "type": "string"
        },
        {
          "internalType": "string",
          "name": "description",
          "type": "string"
        },
        {
          "internalType": "uint256",
          "name": "price",
          "type": "uint256"
        },
        {
          "internalType": "uint256",
          "name": "remainingStock",
          "type": "uint256"
        }
      ],
      "stateMutability": "view",
      "type": "function",
      "constant": true
    },
    {
      "inputs": [
        {
          "internalType": "uint256",
          "name": "",
          "type": "uint256"
        },
        {
          "internalType": "uint256",
          "name": "",
          "type": "uint256"
        }
      ],
      "name": "orders",
      "outputs": [
        {
          "internalType": "uint256",
          "name": "orderId",
          "type": "uint256"
        },
        {
          "internalType": "uint256",
          "name": "productId",
          "type": "uint256"
        },
        {
          "internalType": "uint256",
          "name": "clientId",
          "type": "uint256"
        },
        {
          "internalType": "uint256",
          "name": "clientTransactionId",
          "type": "uint256"
        },
        {
          "internalType": "uint256",
          "name": "quantity",
          "type": "uint256"
        },
        {
          "internalType": "uint256",
          "name": "orderDate",
          "type": "uint256"
        },
        {
          "internalType": "uint256",
          "name": "bill",
          "type": "uint256"
        },
        {
          "internalType": "string",
          "name": "status",
          "type": "string"
        }
      ],
      "stateMutability": "view",
      "type": "function",
      "constant": true
    },
    {
      "inputs": [],
      "name": "totalClients",
      "outputs": [
        {
          "internalType": "uint256",
          "name": "",
          "type": "uint256"
        }
      ],
      "stateMutability": "view",
      "type": "function",
      "constant": true
    },
    {
      "inputs": [],
      "name": "totalMedicines",
      "outputs": [
        {
          "internalType": "uint256",
          "name": "",
          "type": "uint256"
        }
      ],
      "stateMutability": "view",
      "type": "function",
      "constant": true
    },
    {
      "inputs": [],
      "name": "totalOrders",
      "outputs": [
        {
          "internalType": "uint256",
          "name": "",
          "type": "uint256"
        }
      ],
      "stateMutability": "view",
      "type": "function",
      "constant": true
    },
    {
      "inputs": [
        {
          "internalType": "string",
          "name": "_name",
          "type": "string"
        },
        {
          "internalType": "string",
          "name": "_formulaName",
          "type": "string"
        },
        {
          "internalType": "string",
          "name": "_description",
          "type": "string"
        },
        {
          "internalType": "uint256",
          "name": "_price",
          "type": "uint256"
        },
        {
          "internalType": "uint256",
          "name": "_stock",
          "type": "uint256"
        }
      ],
      "name": "addMedicine",
      "outputs": [],
      "stateMutability": "nonpayable",
      "type": "function"
    },
    {
      "inputs": [
        {
          "internalType": "string",
          "name": "_name",
          "type": "string"
        },
        {
          "internalType": "string",
          "name": "_deliverAddress",
          "type": "string"
        }
      ],
      "name": "addClient",
      "outputs": [],
      "stateMutability": "nonpayable",
      "type": "function"
    },
    {
      "inputs": [
        {
          "internalType": "uint256",
          "name": "_medicineId",
          "type": "uint256"
        },
        {
          "internalType": "uint256",
          "name": "_quantity",
          "type": "uint256"
        }
      ],
      "name": "addOrder",
      "outputs": [],
      "stateMutability": "nonpayable",
      "type": "function"
    },
    {
      "inputs": [
        {
          "internalType": "uint256",
          "name": "_id",
          "type": "uint256"
        },
        {
          "internalType": "string",
          "name": "_name",
          "type": "string"
        },
        {
          "internalType": "string",
          "name": "_formulaName",
          "type": "string"
        },
        {
          "internalType": "string",
          "name": "_description",
          "type": "string"
        },
        {
          "internalType": "uint256",
          "name": "_price",
          "type": "uint256"
        },
        {
          "internalType": "uint256",
          "name": "_stock",
          "type": "uint256"
        }
      ],
      "name": "updateMedicine",
      "outputs": [],
      "stateMutability": "nonpayable",
      "type": "function"
    },
    {
      "inputs": [
        {
          "internalType": "string",
          "name": "_name",
          "type": "string"
        },
        {
          "internalType": "string",
          "name": "_deliverAddress",
          "type": "string"
        }
      ],
      "name": "updateClient",
      "outputs": [],
      "stateMutability": "nonpayable",
      "type": "function"
    },
    {
      "inputs": [
        {
          "internalType": "uint256",
          "name": "_userId",
          "type": "uint256"
        },
        {
          "internalType": "uint256",
          "name": "_orderIndex",
          "type": "uint256"
        }
      ],
      "name": "updateOrder",
      "outputs": [],
      "stateMutability": "nonpayable",
      "type": "function"
    },
    {
      "inputs": [
        {
          "internalType": "uint256",
          "name": "amount",
          "type": "uint256"
        }
      ],
      "name": "pay",
      "outputs": [],
      "stateMutability": "nonpayable",
      "type": "function"
    },
    {
      "inputs": [
        {
          "internalType": "address",
          "name": "_account",
          "type": "address"
        }
      ],
      "name": "balance",
      "outputs": [
        {
          "internalType": "uint256",
          "name": "",
          "type": "uint256"
        }
      ],
      "stateMutability": "view",
      "type": "function",
      "constant": true
    },
    {
      "inputs": [
        {
          "internalType": "string",
          "name": "a",
          "type": "string"
        },
        {
          "internalType": "string",
          "name": "b",
          "type": "string"
        }
      ],
      "name": "compareStrings",
      "outputs": [
        {
          "internalType": "bool",
          "name": "",
          "type": "bool"
        }
      ],
      "stateMutability": "view",
      "type": "function",
      "constant": true
    }
  ],
  "bytecode": "0x608060405260006002556000600355600060045534801561001f57600080fd5b5060405161392d38038061392d8339818101604052602081101561004257600080fd5b8101908080519060200190929190505050336000806101000a81548173ffffffffffffffffffffffffffffffffffffffff021916908373ffffffffffffffffffffffffffffffffffffffff16021790555080600160006101000a81548173ffffffffffffffffffffffffffffffffffffffff021916908373ffffffffffffffffffffffffffffffffffffffff16021790555050613849806100e46000396000f3fe608060405234801561001057600080fd5b50600436106101165760003560e01c8063bed34bba116100a2578063e3d670d711610071578063e3d670d714610cee578063f28db6c414610d46578063f4b9fa7514610d7e578063f851a44014610dc8578063f88af21d14610e1257610116565b8063bed34bba146109a4578063c290d69114610b0e578063c50fb20314610b3c578063c85e766d14610b5a57610116565b8063587b71a6116100e9578063587b71a6146103345780639202b8301461036c57806398173ff41461057357806399ac79d1146106c5578063b94a000f146108c257610116565b806304c8e5ba1461011b5780630e08b0e3146101a65780631d834409146101c45780633666af23146101e2575b600080fd5b61015d6004803603602081101561013157600080fd5b81019080803573ffffffffffffffffffffffffffffffffffffffff169060200190929190505050610f66565b604051808373ffffffffffffffffffffffffffffffffffffffff1673ffffffffffffffffffffffffffffffffffffffff1681526020018281526020019250505060405180910390f35b6101ae610faa565b6040518082815260200191505060405180910390f35b6101cc610fb0565b6040518082815260200191505060405180910390f35b610332600480360360408110156101f857600080fd5b810190808035906020019064010000000081111561021557600080fd5b82018360208201111561022757600080fd5b8035906020019184600183028401116401000000008311171561024957600080fd5b91908080601f016020809104026020016040519081016040528093929190818152602001838380828437600081840152601f19601f820116905080830192505050505050509192919290803590602001906401000000008111156102ac57600080fd5b8201836020820111156102be57600080fd5b803590602001918460018302840111640100000000831117156102e057600080fd5b91908080601f016020809104026020016040519081016040528093929190818152602001838380828437600081840152601f19601f820116905080830192505050505050509192919290505050610fb6565b005b61036a6004803603604081101561034a57600080fd5b8101908080359060200190929190803590602001909291905050506114f7565b005b610571600480360360c081101561038257600080fd5b8101908080359060200190929190803590602001906401000000008111156103a957600080fd5b8201836020820111156103bb57600080fd5b803590602001918460018302840111640100000000831117156103dd57600080fd5b91908080601f016020809104026020016040519081016040528093929190818152602001838380828437600081840152601f19601f8201169050808301925050505050505091929192908035906020019064010000000081111561044057600080fd5b82018360208201111561045257600080fd5b8035906020019184600183028401116401000000008311171561047457600080fd5b91908080601f016020809104026020016040519081016040528093929190818152602001838380828437600081840152601f19601f820116905080830192505050505050509192919290803590602001906401000000008111156104d757600080fd5b8201836020820111156104e957600080fd5b8035906020019184600183028401116401000000008311171561050b57600080fd5b91908080601f016020809104026020016040519081016040528093929190818152602001838380828437600081840152601f19601f82011690508083019250505050505050919291929080359060200190929190803590602001909291905050506117ef565b005b6106c36004803603604081101561058957600080fd5b81019080803590602001906401000000008111156105a657600080fd5b8201836020820111156105b857600080fd5b803590602001918460018302840111640100000000831117156105da57600080fd5b91908080601f016020809104026020016040519081016040528093929190818152602001838380828437600081840152601f19601f8201169050808301925050505050505091929192908035906020019064010000000081111561063d57600080fd5b82018360208201111561064f57600080fd5b8035906020019184600183028401116401000000008311171561067157600080fd5b91908080601f016020809104026020016040519081016040528093929190818152602001838380828437600081840152601f19601f820116905080830192505050505050509192919290505050611d0d565b005b6108c0600480360360a08110156106db57600080fd5b81019080803590602001906401000000008111156106f857600080fd5b82018360208201111561070a57600080fd5b8035906020019184600183028401116401000000008311171561072c57600080fd5b91908080601f016020809104026020016040519081016040528093929190818152602001838380828437600081840152601f19601f8201169050808301925050505050505091929192908035906020019064010000000081111561078f57600080fd5b8201836020820111156107a157600080fd5b803590602001918460018302840111640100000000831117156107c357600080fd5b91908080601f016020809104026020016040519081016040528093929190818152602001838380828437600081840152601f19601f8201169050808301925050505050505091929192908035906020019064010000000081111561082657600080fd5b82018360208201111561083857600080fd5b8035906020019184600183028401116401000000008311171561085a57600080fd5b91908080601f016020809104026020016040519081016040528093929190818152602001838380828437600081840152601f19601f82011690508083019250505050505050919291929080359060200190929190803590602001909291905050506120a8565b005b6108f8600480360360408110156108d857600080fd5b810190808035906020019092919080359060200190929190505050612335565b6040518089815260200188815260200187815260200186815260200185815260200184815260200183815260200180602001828103825283818151815260200191508051906020019080838360005b83811015610962578082015181840152602081019050610947565b50505050905090810190601f16801561098f5780820380516001836020036101000a031916815260200191505b50995050505050505050505060405180910390f35b610af4600480360360408110156109ba57600080fd5b81019080803590602001906401000000008111156109d757600080fd5b8201836020820111156109e957600080fd5b80359060200191846001830284011164010000000083111715610a0b57600080fd5b91908080601f016020809104026020016040519081016040528093929190818152602001838380828437600081840152601f19601f82011690508083019250505050505050919291929080359060200190640100000000811115610a6e57600080fd5b820183602082011115610a8057600080fd5b80359060200191846001830284011164010000000083111715610aa257600080fd5b91908080601f016020809104026020016040519081016040528093929190818152602001838380828437600081840152601f19601f820116905080830192505050505050509192919290505050612422565b604051808215151515815260200191505060405180910390f35b610b3a60048036036020811015610b2457600080fd5b8101908080359060200190929190505050612511565b005b610b4461264e565b6040518082815260200191505060405180910390f35b610b8660048036036020811015610b7057600080fd5b8101908080359060200190929190505050612654565b60405180878152602001806020018060200180602001868152602001858152602001848103845289818151815260200191508051906020019080838360005b83811015610be0578082015181840152602081019050610bc5565b50505050905090810190601f168015610c0d5780820380516001836020036101000a031916815260200191505b50848103835288818151815260200191508051906020019080838360005b83811015610c46578082015181840152602081019050610c2b565b50505050905090810190601f168015610c735780820380516001836020036101000a031916815260200191505b50848103825287818151815260200191508051906020019080838360005b83811015610cac578082015181840152602081019050610c91565b50505050905090810190601f168015610cd95780820380516001836020036101000a031916815260200191505b50995050505050505050505060405180910390f35b610d3060048036036020811015610d0457600080fd5b81019080803573ffffffffffffffffffffffffffffffffffffffff169060200190929190505050612858565b6040518082815260200191505060405180910390f35b610d7c60048036036040811015610d5c57600080fd5b810190808035906020019092919080359060200190929190505050612951565b005b610d866134ad565b604051808273ffffffffffffffffffffffffffffffffffffffff1673ffffffffffffffffffffffffffffffffffffffff16815260200191505060405180910390f35b610dd06134d3565b604051808273ffffffffffffffffffffffffffffffffffffffff1673ffffffffffffffffffffffffffffffffffffffff16815260200191505060405180910390f35b610e3e60048036036020811015610e2857600080fd5b81019080803590602001909291905050506134f8565b604051808681526020018573ffffffffffffffffffffffffffffffffffffffff1673ffffffffffffffffffffffffffffffffffffffff1681526020018060200180602001848152602001838103835286818151815260200191508051906020019080838360005b83811015610ec0578082015181840152602081019050610ea5565b50505050905090810190601f168015610eed5780820380516001836020036101000a031916815260200191505b50838103825285818151815260200191508051906020019080838360005b83811015610f26578082015181840152602081019050610f0b565b50505050905090810190601f168015610f535780820380516001836020036101000a031916815260200191505b5097505050505050505060405180910390f35b60076020528060005260406000206000915090508060000160009054906101000a900473ffffffffffffffffffffffffffffffffffffffff16908060010154905082565b60045481565b60025481565b60008251118015610fc8575060008151115b610fd157600080fd5b610fd961367e565b600760003373ffffffffffffffffffffffffffffffffffffffff1673ffffffffffffffffffffffffffffffffffffffff1681526020019081526020016000206040518060400160405290816000820160009054906101000a900473ffffffffffffffffffffffffffffffffffffffff1673ffffffffffffffffffffffffffffffffffffffff1673ffffffffffffffffffffffffffffffffffffffff16815260200160018201548152505090506000816020015190506110966136ae565b600660008381526020019081526020016000206040518060a0016040529081600082015481526020016001820160009054906101000a900473ffffffffffffffffffffffffffffffffffffffff1673ffffffffffffffffffffffffffffffffffffffff1673ffffffffffffffffffffffffffffffffffffffff168152602001600282018054600181600116156101000203166002900480601f0160208091040260200160405190810160405280929190818152602001828054600181600116156101000203166002900480156111ad5780601f10611182576101008083540402835291602001916111ad565b820191906000526020600020905b81548152906001019060200180831161119057829003601f168201915b50505050508152602001600382018054600181600116156101000203166002900480601f01602080910402602001604051908101604052809291908181526020018280546001816001161561010002031660029004801561124f5780601f106112245761010080835404028352916020019161124f565b820191906000526020600020905b81548152906001019060200180831161123257829003601f168201915b50505050508152602001600482015481525050905060001515611276826040015187612422565b15151480611295575060001515611291826060015186612422565b1515145b156114f0576040518060a0016040528082600001518152602001826020015173ffffffffffffffffffffffffffffffffffffffff168152602001868152602001826060015181526020018260800151815250600660008481526020019081526020016000206000820151816000015560208201518160010160006101000a81548173ffffffffffffffffffffffffffffffffffffffff021916908373ffffffffffffffffffffffffffffffffffffffff16021790555060408201518160020190805190602001906113679291906136f3565b5060608201518160030190805190602001906113849291906136f3565b50608082015181600401559050507f5bb694d60a295a0f6ea9a8b338035e43dc1ea0f735ed60f6f870e9496f649e93816000015182602001518784606001518560800151604051808681526020018573ffffffffffffffffffffffffffffffffffffffff1673ffffffffffffffffffffffffffffffffffffffff1681526020018060200180602001848152602001838103835286818151815260200191508051906020019080838360005b8381101561144a57808201518184015260208101905061142f565b50505050905090810190601f1680156114775780820380516001836020036101000a031916815260200191505b50838103825285818151815260200191508051906020019080838360005b838110156114b0578082015181840152602081019050611495565b50505050905090810190601f1680156114dd5780820380516001836020036101000a031916815260200191505b5097505050505050505060405180910390a15b5050505050565b6114ff613773565b6008600084815260200190815260200160002060008381526020019081526020016000206040518061010001604052908160008201548152602001600182015481526020016002820154815260200160038201548152602001600482015481526020016005820154815260200160068201548152602001600782018054600181600116156101000203166002900480601f01602080910402602001604051908101604052809291908181526020018280546001816001161561010002031660029004801561160e5780601f106115e35761010080835404028352916020019161160e565b820191906000526020600020905b8154815290600101906020018083116115f157829003601f168201915b505050505081525050905060405180610100016040528082600001518152602001826020015181526020018260400151815260200182606001518152602001826080015181526020018260a0015181526020018260c0015181526020016040518060400160405280600981526020017f44656c6976657265640000000000000000000000000000000000000000000000815250815250600860008581526020019081526020016000206000848152602001908152602001600020600082015181600001556020820151816001015560408201518160020155606082015181600301556080820151816004015560a0820151816005015560c0820151816006015560e082015181600701908051906020019061172a9291906136f3565b509050507f279df2a4f31eefaba4a9dea10729837b0c576403fdc6ca14ff57c97c832aeb9a816000015182602001518360400151846060015185608001518660a001518760c001516040518088815260200187815260200186815260200185815260200184815260200183815260200182815260200180602001828103825260098152602001807f44656c69766572656400000000000000000000000000000000000000000000008152506020019850505050505050505060405180910390a1505050565b60008551118015611801575060008451115b801561180e575060008351115b61181757600080fd5b61181f6137b8565b600560008881526020019081526020016000206040518060c001604052908160008201548152602001600182018054600181600116156101000203166002900480601f0160208091040260200160405190810160405280929190818152602001828054600181600116156101000203166002900480156118e05780601f106118b5576101008083540402835291602001916118e0565b820191906000526020600020905b8154815290600101906020018083116118c357829003601f168201915b50505050508152602001600282018054600181600116156101000203166002900480601f0160208091040260200160405190810160405280929190818152602001828054600181600116156101000203166002900480156119825780601f1061195757610100808354040283529160200191611982565b820191906000526020600020905b81548152906001019060200180831161196557829003601f168201915b50505050508152602001600382018054600181600116156101000203166002900480601f016020809104026020016040519081016040528092919081815260200182805460018160011615610100020316600290048015611a245780601f106119f957610100808354040283529160200191611a24565b820191906000526020600020905b815481529060010190602001808311611a0757829003601f168201915b5050505050815260200160048201548152602001600582015481525050905060008160000151905060001515611a5e836020015189612422565b15151480611a7d575060001515611a79836040015188612422565b1515145b80611a99575060001515611a95836060015187612422565b1515145b80611aa8575083826080015114155b80611ab75750828260a0015114155b15611d03576040518060c001604052808281526020018881526020018781526020018681526020018581526020018481525060056000838152602001908152602001600020600082015181600001556020820151816001019080519060200190611b229291906136f3565b506040820151816002019080519060200190611b3f9291906136f3565b506060820151816003019080519060200190611b5c9291906136f3565b506080820151816004015560a082015181600501559050507fab71ca495700db77ce9ab678bb1efbff2266f18c199d4d5a55dd942236d3ac3881888888888860405180878152602001806020018060200180602001868152602001858152602001848103845289818151815260200191508051906020019080838360005b83811015611bf5578082015181840152602081019050611bda565b50505050905090810190601f168015611c225780820380516001836020036101000a031916815260200191505b50848103835288818151815260200191508051906020019080838360005b83811015611c5b578082015181840152602081019050611c40565b50505050905090810190601f168015611c885780820380516001836020036101000a031916815260200191505b50848103825287818151815260200191508051906020019080838360005b83811015611cc1578082015181840152602081019050611ca6565b50505050905090810190601f168015611cee5780820380516001836020036101000a031916815260200191505b50995050505050505050505060405180910390a15b5050505050505050565b60008251118015611d1f575060008151115b611d2857600080fd5b6004600081548092919060010191905055506040518060a0016040528060045481526020013373ffffffffffffffffffffffffffffffffffffffff16815260200183815260200182815260200160008152506006600060045481526020019081526020016000206000820151816000015560208201518160010160006101000a81548173ffffffffffffffffffffffffffffffffffffffff021916908373ffffffffffffffffffffffffffffffffffffffff1602179055506040820151816002019080519060200190611dfc9291906136f3565b506060820151816003019080519060200190611e199291906136f3565b506080820151816004015590505060405180604001604052803373ffffffffffffffffffffffffffffffffffffffff168152602001600454815250600760003373ffffffffffffffffffffffffffffffffffffffff1673ffffffffffffffffffffffffffffffffffffffff16815260200190815260200160002060008201518160000160006101000a81548173ffffffffffffffffffffffffffffffffffffffff021916908373ffffffffffffffffffffffffffffffffffffffff160217905550602082015181600101559050507f5bb694d60a295a0f6ea9a8b338035e43dc1ea0f735ed60f6f870e9496f649e936004543384846000604051808681526020018573ffffffffffffffffffffffffffffffffffffffff1673ffffffffffffffffffffffffffffffffffffffff1681526020018060200180602001848152602001838103835286818151815260200191508051906020019080838360005b83811015611f92578082015181840152602081019050611f77565b50505050905090810190601f168015611fbf5780820380516001836020036101000a031916815260200191505b50838103825285818151815260200191508051906020019080838360005b83811015611ff8578082015181840152602081019050611fdd565b50505050905090810190601f1680156120255780820380516001836020036101000a031916815260200191505b5097505050505050505060405180910390a17fc4bc3ddeb69eba83178f1b7ee16bc7847b2c474d6c4368a58a027f6bf54ff0e433600454604051808373ffffffffffffffffffffffffffffffffffffffff1673ffffffffffffffffffffffffffffffffffffffff1681526020018281526020019250505060405180910390a15050565b600085511180156120ba575060008451115b80156120c7575060008351115b6120d057600080fd5b6003600081548092919060010191905055506040518060c0016040528060035481526020018681526020018581526020018481526020018381526020018281525060056000600354815260200190815260200160002060008201518160000155602082015181600101908051906020019061214c9291906136f3565b5060408201518160020190805190602001906121699291906136f3565b5060608201518160030190805190602001906121869291906136f3565b506080820151816004015560a082015181600501559050507fab71ca495700db77ce9ab678bb1efbff2266f18c199d4d5a55dd942236d3ac38600354868686868660405180878152602001806020018060200180602001868152602001858152602001848103845289818151815260200191508051906020019080838360005b83811015612221578082015181840152602081019050612206565b50505050905090810190601f16801561224e5780820380516001836020036101000a031916815260200191505b50848103835288818151815260200191508051906020019080838360005b8381101561228757808201518184015260208101905061226c565b50505050905090810190601f1680156122b45780820380516001836020036101000a031916815260200191505b50848103825287818151815260200191508051906020019080838360005b838110156122ed5780820151818401526020810190506122d2565b50505050905090810190601f16801561231a5780820380516001836020036101000a031916815260200191505b50995050505050505050505060405180910390a15050505050565b600860205281600052604060002060205280600052604060002060009150915050806000015490806001015490806002015490806003015490806004015490806005015490806006015490806007018054600181600116156101000203166002900480601f0160208091040260200160405190810160405280929190818152602001828054600181600116156101000203166002900480156124185780601f106123ed57610100808354040283529160200191612418565b820191906000526020600020905b8154815290600101906020018083116123fb57829003601f168201915b5050505050905088565b6000816040516020018082805190602001908083835b6020831061245b5780518252602082019150602081019050602083039250612438565b6001836020036101000a03801982511681845116808217855250505050505090500191505060405160208183030381529060405280519060200120836040516020018082805190602001908083835b602083106124cd57805182526020820191506020810190506020830392506124aa565b6001836020036101000a0380198251168184511680821785525050505050509050019150506040516020818303038152906040528051906020012014905092915050565b600160009054906101000a900473ffffffffffffffffffffffffffffffffffffffff1673ffffffffffffffffffffffffffffffffffffffff166323b872dd336000809054906101000a900473ffffffffffffffffffffffffffffffffffffffff16846040518463ffffffff1660e01b8152600401808473ffffffffffffffffffffffffffffffffffffffff1673ffffffffffffffffffffffffffffffffffffffff1681526020018373ffffffffffffffffffffffffffffffffffffffff1673ffffffffffffffffffffffffffffffffffffffff1681526020018281526020019350505050602060405180830381600087803b15801561260f57600080fd5b505af1158015612623573d6000803e3d6000fd5b505050506040513d602081101561263957600080fd5b81019080805190602001909291905050505050565b60035481565b6005602052806000526040600020600091509050806000015490806001018054600181600116156101000203166002900480601f0160208091040260200160405190810160405280929190818152602001828054600181600116156101000203166002900480156127065780601f106126db57610100808354040283529160200191612706565b820191906000526020600020905b8154815290600101906020018083116126e957829003601f168201915b505050505090806002018054600181600116156101000203166002900480601f0160208091040260200160405190810160405280929190818152602001828054600181600116156101000203166002900480156127a45780601f10612779576101008083540402835291602001916127a4565b820191906000526020600020905b81548152906001019060200180831161278757829003601f168201915b505050505090806003018054600181600116156101000203166002900480601f0160208091040260200160405190810160405280929190818152602001828054600181600116156101000203166002900480156128425780601f1061281757610100808354040283529160200191612842565b820191906000526020600020905b81548152906001019060200180831161282557829003601f168201915b5050505050908060040154908060050154905086565b600080670de0b6b3a7640000600160009054906101000a900473ffffffffffffffffffffffffffffffffffffffff1673ffffffffffffffffffffffffffffffffffffffff166370a08231856040518263ffffffff1660e01b8152600401808273ffffffffffffffffffffffffffffffffffffffff1673ffffffffffffffffffffffffffffffffffffffff16815260200191505060206040518083038186803b15801561290357600080fd5b505afa158015612917573d6000803e3d6000fd5b505050506040513d602081101561292d57600080fd5b81019080805190602001909291905050508161294557fe5b04905080915050919050565b61295961367e565b600760003373ffffffffffffffffffffffffffffffffffffffff1673ffffffffffffffffffffffffffffffffffffffff1681526020019081526020016000206040518060400160405290816000820160009054906101000a900473ffffffffffffffffffffffffffffffffffffffff1673ffffffffffffffffffffffffffffffffffffffff1673ffffffffffffffffffffffffffffffffffffffff1681526020016001820154815250509050600081602001519050612a166136ae565b600660008381526020019081526020016000206040518060a0016040529081600082015481526020016001820160009054906101000a900473ffffffffffffffffffffffffffffffffffffffff1673ffffffffffffffffffffffffffffffffffffffff1673ffffffffffffffffffffffffffffffffffffffff168152602001600282018054600181600116156101000203166002900480601f016020809104026020016040519081016040528092919081815260200182805460018160011615610100020316600290048015612b2d5780601f10612b0257610100808354040283529160200191612b2d565b820191906000526020600020905b815481529060010190602001808311612b1057829003601f168201915b50505050508152602001600382018054600181600116156101000203166002900480601f016020809104026020016040519081016040528092919081815260200182805460018160011615610100020316600290048015612bcf5780601f10612ba457610100808354040283529160200191612bcf565b820191906000526020600020905b815481529060010190602001808311612bb257829003601f168201915b5050505050815260200160048201548152505090506000600182608001510190506040518060a001604052808481526020013373ffffffffffffffffffffffffffffffffffffffff16815260200183604001518152602001836060015181526020016001846080015101815250600660008581526020019081526020016000206000820151816000015560208201518160010160006101000a81548173ffffffffffffffffffffffffffffffffffffffff021916908373ffffffffffffffffffffffffffffffffffffffff1602179055506040820151816002019080519060200190612cbc9291906136f3565b506060820151816003019080519060200190612cd99291906136f3565b50608082015181600401559050507f5bb694d60a295a0f6ea9a8b338035e43dc1ea0f735ed60f6f870e9496f649e938333846040015185606001516001876080015101604051808681526020018573ffffffffffffffffffffffffffffffffffffffff1673ffffffffffffffffffffffffffffffffffffffff1681526020018060200180602001848152602001838103835286818151815260200191508051906020019080838360005b83811015612d9e578082015181840152602081019050612d83565b50505050905090810190601f168015612dcb5780820380516001836020036101000a031916815260200191505b50838103825285818151815260200191508051906020019080838360005b83811015612e04578082015181840152602081019050612de9565b50505050905090810190601f168015612e315780820380516001836020036101000a031916815260200191505b5097505050505050505060405180910390a1600260008154809291906001019190505550612e5d6137b8565b600560008881526020019081526020016000206040518060c001604052908160008201548152602001600182018054600181600116156101000203166002900480601f016020809104026020016040519081016040528092919081815260200182805460018160011615610100020316600290048015612f1e5780601f10612ef357610100808354040283529160200191612f1e565b820191906000526020600020905b815481529060010190602001808311612f0157829003601f168201915b50505050508152602001600282018054600181600116156101000203166002900480601f016020809104026020016040519081016040528092919081815260200182805460018160011615610100020316600290048015612fc05780601f10612f9557610100808354040283529160200191612fc0565b820191906000526020600020905b815481529060010190602001808311612fa357829003601f168201915b50505050508152602001600382018054600181600116156101000203166002900480601f0160208091040260200160405190810160405280929190818152602001828054600181600116156101000203166002900480156130625780601f1061303757610100808354040283529160200191613062565b820191906000526020600020905b81548152906001019060200180831161304557829003601f168201915b50505050508152602001600482015481526020016005820154815250509050600086826080015102905060405180610100016040528060025481526020018981526020018681526020018481526020018881526020014281526020018281526020016040518060400160405280600781526020017f50656e64696e6700000000000000000000000000000000000000000000000000815250815250600860008781526020019081526020016000206000858152602001908152602001600020600082015181600001556020820151816001015560408201518160020155606082015181600301556080820151816004015560a0820151816005015560c0820151816006015560e08201518160070190805190602001906131839291906136f3565b509050507f279df2a4f31eefaba4a9dea10729837b0c576403fdc6ca14ff57c97c832aeb9a6002548987868b42876040518088815260200187815260200186815260200185815260200184815260200183815260200182815260200180602001828103825260078152602001807f50656e64696e67000000000000000000000000000000000000000000000000008152506020019850505050505050505060405180910390a16000878360a001510390506040518060c00160405280846000015181526020018460200151815260200184604001518152602001846060015181526020018460800151815260200182815250600560008b81526020019081526020016000206000820151816000015560208201518160010190805190602001906132ae9291906136f3565b5060408201518160020190805190602001906132cb9291906136f3565b5060608201518160030190805190602001906132e89291906136f3565b506080820151816004015560a082015181600501559050507fab71ca495700db77ce9ab678bb1efbff2266f18c199d4d5a55dd942236d3ac38836000015184602001518560400151866060015187608001518660405180878152602001806020018060200180602001868152602001858152602001848103845289818151815260200191508051906020019080838360005b8381101561339557808201518184015260208101905061337a565b50505050905090810190601f1680156133c25780820380516001836020036101000a031916815260200191505b50848103835288818151815260200191508051906020019080838360005b838110156133fb5780820151818401526020810190506133e0565b50505050905090810190601f1680156134285780820380516001836020036101000a031916815260200191505b50848103825287818151815260200191508051906020019080838360005b83811015613461578082015181840152602081019050613446565b50505050905090810190601f16801561348e5780820380516001836020036101000a031916815260200191505b50995050505050505050505060405180910390a1505050505050505050565b600160009054906101000a900473ffffffffffffffffffffffffffffffffffffffff1681565b6000809054906101000a900473ffffffffffffffffffffffffffffffffffffffff1681565b60066020528060005260406000206000915090508060000154908060010160009054906101000a900473ffffffffffffffffffffffffffffffffffffffff1690806002018054600181600116156101000203166002900480601f0160208091040260200160405190810160405280929190818152602001828054600181600116156101000203166002900480156135d05780601f106135a5576101008083540402835291602001916135d0565b820191906000526020600020905b8154815290600101906020018083116135b357829003601f168201915b505050505090806003018054600181600116156101000203166002900480601f01602080910402602001604051908101604052809291908181526020018280546001816001161561010002031660029004801561366e5780601f106136435761010080835404028352916020019161366e565b820191906000526020600020905b81548152906001019060200180831161365157829003601f168201915b5050505050908060040154905085565b6040518060400160405280600073ffffffffffffffffffffffffffffffffffffffff168152602001600081525090565b6040518060a0016040528060008152602001600073ffffffffffffffffffffffffffffffffffffffff1681526020016060815260200160608152602001600081525090565b828054600181600116156101000203166002900490600052602060002090601f016020900481019282601f1061373457805160ff1916838001178555613762565b82800160010185558215613762579182015b82811115613761578251825591602001919060010190613746565b5b50905061376f91906137ee565b5090565b60405180610100016040528060008152602001600081526020016000815260200160008152602001600081526020016000815260200160008152602001606081525090565b6040518060c001604052806000815260200160608152602001606081526020016060815260200160008152602001600081525090565b61381091905b8082111561380c5760008160009055506001016137f4565b5090565b9056fea26469706673582212207c62c131e3ad22be50c5c8060a05b0a67923e10d1735c6f62713c7079f1c4dcc64736f6c63430006020033",
  "source": "pragma solidity >=0.6.2;\n\nimport '@openzeppelin/contracts/token/ERC20/IERC20.sol';\n\ncontract Medicare{\n    address public admin;\n    IERC20 public dai;\n\n    uint public totalOrders = 0;\n    uint public totalMedicines = 0;\n    uint public totalClients = 0;\n\n    struct Medicine{\n        uint id;\n        string name;\n        string formulaName;\n        string description;\n        uint price;\n        uint remainingStock;\n    }\n\n    struct Clients{\n        uint id;\n        address payable user;\n        string name;\n        string deliverAddress;\n        uint totalTransaction;\n    }\n\n    struct ClientAddresses{\n        address cAddress;\n        uint id;\n    }\n\n    struct Orders{\n        uint orderId;\n        uint productId;\n        uint clientId;\n        uint clientTransactionId;\n        uint quantity;\n        uint orderDate;\n        uint bill;\n        string status;\n    }\n\n    event NewMedicine(\n        uint id,\n        string name,\n        string formulaName,\n        string description,\n        uint price,\n        uint remainingStock\n        );\n\n    event NewClient(\n        uint id,\n        address payable user,\n        string name,\n        string deliverAddress,\n        uint totalTransaction\n        );\n\n    event NewClientAddress(\n        address cAddress,\n        uint id\n        );\n\n    event NewOrder(\n        uint orderId,\n        uint productId,\n        uint clientId,\n        uint clientTransactionId,\n        uint quantity,\n        uint orderDate,\n        uint bill,\n        string status\n        );\n\n    mapping(uint => Medicine) public medicines;\n    mapping(uint => Clients) public clients;\n\tmapping(address => ClientAddresses) public clientAddresses;\n\tmapping(uint => mapping(uint => Orders)) public orders;\n\n\n    constructor(address daiAddress) public {\n        admin = msg.sender;\n        dai = IERC20(daiAddress);\n    }\n\n    function addMedicine(string memory _name, string memory _formulaName, string memory _description, uint _price, uint _stock)public{\n\t\trequire((bytes(_name).length > 0) && (bytes(_formulaName).length > 0) && (bytes(_description).length > 0));\n        totalMedicines++;\n        medicines[totalMedicines] = Medicine(totalMedicines,_name,_formulaName,_description,_price,_stock);\n        emit NewMedicine(totalMedicines,_name,_formulaName,_description,_price,_stock);\n    }\n\n    function addClient(string memory _name, string memory _deliverAddress)public{\n        require((bytes(_name).length > 0) && (bytes(_deliverAddress).length > 0));\n        totalClients++;\n        clients[totalClients] = Clients(totalClients, msg.sender,_name, _deliverAddress, 0);\n        clientAddresses[msg.sender] = ClientAddresses(msg.sender, totalClients);\n        emit NewClient(totalClients, msg.sender,_name, _deliverAddress, 0);\n        emit NewClientAddress(msg.sender, totalClients);\n    }\n\n    function addOrder(uint _medicineId, uint _quantity)public{\n        ClientAddresses memory _user = clientAddresses[msg.sender];\n        uint _userId = _user.id;\n        Clients memory _clients = clients[_userId];\n        uint _orderIndex = _clients.totalTransaction+1;\n        clients[_userId] = Clients(_userId, msg.sender,_clients.name, _clients.deliverAddress, _clients.totalTransaction+1);\n        emit NewClient(_userId, msg.sender,_clients.name, _clients.deliverAddress, _clients.totalTransaction+1);\n        totalOrders++;                \n        Medicine memory _medicine = medicines[_medicineId];\n        uint _bill = _medicine.price * _quantity;\n        orders[_userId][_orderIndex] = Orders(totalOrders, _medicineId,_userId,_orderIndex,_quantity,block.timestamp,_bill,'Pending');\n        emit NewOrder(totalOrders, _medicineId,_userId,_orderIndex,_quantity,block.timestamp, _bill,'Pending');\n        uint _updatedStock = _medicine.remainingStock - _quantity;\n        medicines[_medicineId] = Medicine(_medicine.id, _medicine.name, _medicine.formulaName, _medicine.description, _medicine.price, _updatedStock);\n        emit NewMedicine(_medicine.id, _medicine.name, _medicine.formulaName, _medicine.description, _medicine.price, _updatedStock);\n    }\n\n    function updateMedicine(uint _id, string memory _name, string memory _formulaName, string memory _description, uint _price, uint _stock)public{\n\t\trequire((bytes(_name).length > 0) && (bytes(_formulaName).length > 0) && (bytes(_description).length > 0));\n        Medicine memory _medicine = medicines[_id];\n        uint _medicineId = _medicine.id;\n        if((compareStrings(_medicine.name, _name)==false)||(compareStrings(_medicine.formulaName,_formulaName) == false)||(compareStrings(_medicine.description,_description) == false)||(_medicine.price != _price)||(_medicine.remainingStock != _stock)){\n            medicines[_medicineId] = Medicine(_medicineId,_name,_formulaName,_description,_price,_stock);\n            emit NewMedicine(_medicineId,_name,_formulaName,_description,_price,_stock);\n        }\n    }\n\n    function updateClient(string memory _name, string memory _deliverAddress)public{\n        require((bytes(_name).length > 0) && (bytes(_deliverAddress).length > 0));\n        ClientAddresses memory _user = clientAddresses[msg.sender];\n        uint _userId = _user.id;\n        Clients memory _clients = clients[_userId];\n        if((compareStrings(_clients.name, _name)==false)||(compareStrings(_clients.deliverAddress,_deliverAddress) == false)){\n            clients[_userId] = Clients(_clients.id,_clients.user,_name,_clients.deliverAddress,_clients.totalTransaction);\n            emit NewClient(_clients.id,_clients.user,_name,_clients.deliverAddress,_clients.totalTransaction);\n        }\n    }\n    \n    function updateOrder(uint _userId, uint _orderIndex)public{\n        Orders memory _order = orders[_userId][_orderIndex];\n        orders[_userId][_orderIndex] = Orders(_order.orderId,_order.productId,_order.clientId,_order.clientTransactionId,_order.quantity,_order.orderDate,_order.bill,'Delivered');\n        emit NewOrder(_order.orderId,_order.productId,_order.clientId,_order.clientTransactionId,_order.quantity,_order.orderDate,_order.bill,'Delivered');\n    }\n\n    function pay(uint amount)external{\n        dai.transferFrom(msg.sender, admin, amount);\n    }\n\n    function balance(address _account) public view returns(uint){\n        uint bal = dai.balanceOf(_account)/10**18;\n        return bal;\n    }\n    \n\tfunction compareStrings (string memory a, string memory b) public view returns (bool) {\n\t\treturn (keccak256(abi.encodePacked((a))) == keccak256(abi.encodePacked((b))) );\n\t}\n}",
  "sourcePath": "D:/Studies/Projects/Medicare/src/contracts/Medicare.sol",
  "compiler": {
    "name": "solc",
    "version": "0.6.2+commit.bacdbe57.Emscripten.clang"
  },
  "schemaVersion": "3.0.20",
  "updatedAt": "2021-09-16T03:17:24.150Z",
  "networkType": "ethereum",
  "devdoc": {
    "methods": {}
  },
  "userdoc": {
    "methods": {}
  }
}