{
  "contractName": "Medicare",
  "abi": [
    {
      "inputs": [
        {
          "internalType": "address",
          "name": "daiAddress",
          "type": "address"
        }
      ],
      "stateMutability": "nonpayable",
      "type": "constructor"
    },
    {
      "anonymous": false,
      "inputs": [
        {
          "indexed": false,
          "internalType": "uint256",
          "name": "id",
          "type": "uint256"
        },
        {
          "indexed": false,
          "internalType": "address payable",
          "name": "user",
          "type": "address"
        },
        {
          "indexed": false,
          "internalType": "string",
          "name": "name",
          "type": "string"
        },
        {
          "indexed": false,
          "internalType": "string",
          "name": "deliverAddress",
          "type": "string"
        },
        {
          "indexed": false,
          "internalType": "uint256",
          "name": "totalTransaction",
          "type": "uint256"
        }
      ],
      "name": "NewClient",
      "type": "event"
    },
    {
      "anonymous": false,
      "inputs": [
        {
          "indexed": false,
          "internalType": "address",
          "name": "cAddress",
          "type": "address"
        },
        {
          "indexed": false,
          "internalType": "uint256",
          "name": "id",
          "type": "uint256"
        }
      ],
      "name": "NewClientAddress",
      "type": "event"
    },
    {
      "anonymous": false,
      "inputs": [
        {
          "indexed": false,
          "internalType": "uint256",
          "name": "id",
          "type": "uint256"
        },
        {
          "indexed": false,
          "internalType": "string",
          "name": "name",
          "type": "string"
        },
        {
          "indexed": false,
          "internalType": "string",
          "name": "formulaName",
          "type": "string"
        },
        {
          "indexed": false,
          "internalType": "string",
          "name": "description",
          "type": "string"
        },
        {
          "indexed": false,
          "internalType": "uint256",
          "name": "price",
          "type": "uint256"
        },
        {
          "indexed": false,
          "internalType": "uint256",
          "name": "remainingStock",
          "type": "uint256"
        }
      ],
      "name": "NewMedicine",
      "type": "event"
    },
    {
      "anonymous": false,
      "inputs": [
        {
          "indexed": false,
          "internalType": "uint256",
          "name": "orderId",
          "type": "uint256"
        },
        {
          "indexed": false,
          "internalType": "uint256",
          "name": "productId",
          "type": "uint256"
        },
        {
          "indexed": false,
          "internalType": "uint256",
          "name": "clientId",
          "type": "uint256"
        },
        {
          "indexed": false,
          "internalType": "uint256",
          "name": "clientTransactionId",
          "type": "uint256"
        },
        {
          "indexed": false,
          "internalType": "uint256",
          "name": "quantity",
          "type": "uint256"
        },
        {
          "indexed": false,
          "internalType": "uint256",
          "name": "orderDate",
          "type": "uint256"
        },
        {
          "indexed": false,
          "internalType": "string",
          "name": "status",
          "type": "string"
        }
      ],
      "name": "NewOrder",
      "type": "event"
    },
    {
      "inputs": [],
      "name": "admin",
      "outputs": [
        {
          "internalType": "address",
          "name": "",
          "type": "address"
        }
      ],
      "stateMutability": "view",
      "type": "function",
      "constant": true
    },
    {
      "inputs": [
        {
          "internalType": "address",
          "name": "",
          "type": "address"
        }
      ],
      "name": "clientAddresses",
      "outputs": [
        {
          "internalType": "address",
          "name": "cAddress",
          "type": "address"
        },
        {
          "internalType": "uint256",
          "name": "id",
          "type": "uint256"
        }
      ],
      "stateMutability": "view",
      "type": "function",
      "constant": true
    },
    {
      "inputs": [
        {
          "internalType": "uint256",
          "name": "",
          "type": "uint256"
        }
      ],
      "name": "clients",
      "outputs": [
        {
          "internalType": "uint256",
          "name": "id",
          "type": "uint256"
        },
        {
          "internalType": "address payable",
          "name": "user",
          "type": "address"
        },
        {
          "internalType": "string",
          "name": "name",
          "type": "string"
        },
        {
          "internalType": "string",
          "name": "deliverAddress",
          "type": "string"
        },
        {
          "internalType": "uint256",
          "name": "totalTransaction",
          "type": "uint256"
        }
      ],
      "stateMutability": "view",
      "type": "function",
      "constant": true
    },
    {
      "inputs": [],
      "name": "dai",
      "outputs": [
        {
          "internalType": "contract IERC20",
          "name": "",
          "type": "address"
        }
      ],
      "stateMutability": "view",
      "type": "function",
      "constant": true
    },
    {
      "inputs": [
        {
          "internalType": "uint256",
          "name": "",
          "type": "uint256"
        }
      ],
      "name": "medicines",
      "outputs": [
        {
          "internalType": "uint256",
          "name": "id",
          "type": "uint256"
        },
        {
          "internalType": "string",
          "name": "name",
          "type": "string"
        },
        {
          "internalType": "string",
          "name": "formulaName",
          "type": "string"
        },
        {
          "internalType": "string",
          "name": "description",
          "type": "string"
        },
        {
          "internalType": "uint256",
          "name": "price",
          "type": "uint256"
        },
        {
          "internalType": "uint256",
          "name": "remainingStock",
          "type": "uint256"
        }
      ],
      "stateMutability": "view",
      "type": "function",
      "constant": true
    },
    {
      "inputs": [
        {
          "internalType": "uint256",
          "name": "",
          "type": "uint256"
        },
        {
          "internalType": "uint256",
          "name": "",
          "type": "uint256"
        }
      ],
      "name": "orders",
      "outputs": [
        {
          "internalType": "uint256",
          "name": "orderId",
          "type": "uint256"
        },
        {
          "internalType": "uint256",
          "name": "productId",
          "type": "uint256"
        },
        {
          "internalType": "uint256",
          "name": "clientId",
          "type": "uint256"
        },
        {
          "internalType": "uint256",
          "name": "clientTransactionId",
          "type": "uint256"
        },
        {
          "internalType": "uint256",
          "name": "quantity",
          "type": "uint256"
        },
        {
          "internalType": "uint256",
          "name": "orderDate",
          "type": "uint256"
        },
        {
          "internalType": "string",
          "name": "status",
          "type": "string"
        }
      ],
      "stateMutability": "view",
      "type": "function",
      "constant": true
    },
    {
      "inputs": [
        {
          "internalType": "string",
          "name": "_name",
          "type": "string"
        },
        {
          "internalType": "string",
          "name": "_formulaName",
          "type": "string"
        },
        {
          "internalType": "string",
          "name": "_description",
          "type": "string"
        },
        {
          "internalType": "uint256",
          "name": "_price",
          "type": "uint256"
        },
        {
          "internalType": "uint256",
          "name": "_stock",
          "type": "uint256"
        }
      ],
      "name": "addMedicine",
      "outputs": [],
      "stateMutability": "nonpayable",
      "type": "function"
    },
    {
      "inputs": [
        {
          "internalType": "string",
          "name": "_name",
          "type": "string"
        },
        {
          "internalType": "string",
          "name": "_deliverAddress",
          "type": "string"
        }
      ],
      "name": "addClient",
      "outputs": [],
      "stateMutability": "nonpayable",
      "type": "function"
    },
    {
      "inputs": [
        {
          "internalType": "uint256",
          "name": "_medicineId",
          "type": "uint256"
        },
        {
          "internalType": "uint256",
          "name": "_quantity",
          "type": "uint256"
        }
      ],
      "name": "addOrder",
      "outputs": [],
      "stateMutability": "nonpayable",
      "type": "function"
    },
    {
      "inputs": [
        {
          "internalType": "uint256",
          "name": "_id",
          "type": "uint256"
        },
        {
          "internalType": "string",
          "name": "_name",
          "type": "string"
        },
        {
          "internalType": "string",
          "name": "_formulaName",
          "type": "string"
        },
        {
          "internalType": "string",
          "name": "_description",
          "type": "string"
        },
        {
          "internalType": "uint256",
          "name": "_price",
          "type": "uint256"
        },
        {
          "internalType": "uint256",
          "name": "_stock",
          "type": "uint256"
        }
      ],
      "name": "updateMedicine",
      "outputs": [],
      "stateMutability": "nonpayable",
      "type": "function"
    },
    {
      "inputs": [
        {
          "internalType": "string",
          "name": "_name",
          "type": "string"
        },
        {
          "internalType": "string",
          "name": "_deliverAddress",
          "type": "string"
        }
      ],
      "name": "updateClient",
      "outputs": [],
      "stateMutability": "nonpayable",
      "type": "function"
    },
    {
      "inputs": [
        {
          "internalType": "uint256",
          "name": "_userId",
          "type": "uint256"
        },
        {
          "internalType": "uint256",
          "name": "_orderIndex",
          "type": "uint256"
        }
      ],
      "name": "updateOrder",
      "outputs": [],
      "stateMutability": "nonpayable",
      "type": "function"
    },
    {
      "inputs": [
        {
          "internalType": "uint256",
          "name": "amount",
          "type": "uint256"
        }
      ],
      "name": "pay",
      "outputs": [],
      "stateMutability": "nonpayable",
      "type": "function"
    },
    {
      "inputs": [
        {
          "internalType": "string",
          "name": "a",
          "type": "string"
        },
        {
          "internalType": "string",
          "name": "b",
          "type": "string"
        }
      ],
      "name": "compareStrings",
      "outputs": [
        {
          "internalType": "bool",
          "name": "",
          "type": "bool"
        }
      ],
      "stateMutability": "view",
      "type": "function",
      "constant": true
    }
  ],
  "bytecode": "0x608060405260006002556000600355600060045534801561001f57600080fd5b506040516136de3803806136de8339818101604052602081101561004257600080fd5b8101908080519060200190929190505050336000806101000a81548173ffffffffffffffffffffffffffffffffffffffff021916908373ffffffffffffffffffffffffffffffffffffffff16021790555080600160006101000a81548173ffffffffffffffffffffffffffffffffffffffff021916908373ffffffffffffffffffffffffffffffffffffffff160217905550506135fa806100e46000396000f3fe608060405234801561001057600080fd5b50600436106100ea5760003560e01c8063bed34bba1161008c578063f28db6c411610066578063f28db6c414610c61578063f4b9fa7514610c99578063f851a44014610ce3578063f88af21d14610d2d576100ea565b8063bed34bba14610935578063c290d69114610a9f578063c85e766d14610acd576100ea565b80639202b830116100c85780639202b8301461030457806398173ff41461050b57806399ac79d11461065d578063b94a000f1461085a576100ea565b806304c8e5ba146100ef5780633666af231461017a578063587b71a6146102cc575b600080fd5b6101316004803603602081101561010557600080fd5b81019080803573ffffffffffffffffffffffffffffffffffffffff169060200190929190505050610e81565b604051808373ffffffffffffffffffffffffffffffffffffffff1673ffffffffffffffffffffffffffffffffffffffff1681526020018281526020019250505060405180910390f35b6102ca6004803603604081101561019057600080fd5b81019080803590602001906401000000008111156101ad57600080fd5b8201836020820111156101bf57600080fd5b803590602001918460018302840111640100000000831117156101e157600080fd5b91908080601f016020809104026020016040519081016040528093929190818152602001838380828437600081840152601f19601f8201169050808301925050505050505091929192908035906020019064010000000081111561024457600080fd5b82018360208201111561025657600080fd5b8035906020019184600183028401116401000000008311171561027857600080fd5b91908080601f016020809104026020016040519081016040528093929190818152602001838380828437600081840152601f19601f820116905080830192505050505050509192919290505050610ec5565b005b610302600480360360408110156102e257600080fd5b810190808035906020019092919080359060200190929190505050611406565b005b610509600480360360c081101561031a57600080fd5b81019080803590602001909291908035906020019064010000000081111561034157600080fd5b82018360208201111561035357600080fd5b8035906020019184600183028401116401000000008311171561037557600080fd5b91908080601f016020809104026020016040519081016040528093929190818152602001838380828437600081840152601f19601f820116905080830192505050505050509192919290803590602001906401000000008111156103d857600080fd5b8201836020820111156103ea57600080fd5b8035906020019184600183028401116401000000008311171561040c57600080fd5b91908080601f016020809104026020016040519081016040528093929190818152602001838380828437600081840152601f19601f8201169050808301925050505050505091929192908035906020019064010000000081111561046f57600080fd5b82018360208201111561048157600080fd5b803590602001918460018302840111640100000000831117156104a357600080fd5b91908080601f016020809104026020016040519081016040528093929190818152602001838380828437600081840152601f19601f82011690508083019250505050505050919291929080359060200190929190803590602001909291905050506116d2565b005b61065b6004803603604081101561052157600080fd5b810190808035906020019064010000000081111561053e57600080fd5b82018360208201111561055057600080fd5b8035906020019184600183028401116401000000008311171561057257600080fd5b91908080601f016020809104026020016040519081016040528093929190818152602001838380828437600081840152601f19601f820116905080830192505050505050509192919290803590602001906401000000008111156105d557600080fd5b8201836020820111156105e757600080fd5b8035906020019184600183028401116401000000008311171561060957600080fd5b91908080601f016020809104026020016040519081016040528093929190818152602001838380828437600081840152601f19601f820116905080830192505050505050509192919290505050611bf0565b005b610858600480360360a081101561067357600080fd5b810190808035906020019064010000000081111561069057600080fd5b8201836020820111156106a257600080fd5b803590602001918460018302840111640100000000831117156106c457600080fd5b91908080601f016020809104026020016040519081016040528093929190818152602001838380828437600081840152601f19601f8201169050808301925050505050505091929192908035906020019064010000000081111561072757600080fd5b82018360208201111561073957600080fd5b8035906020019184600183028401116401000000008311171561075b57600080fd5b91908080601f016020809104026020016040519081016040528093929190818152602001838380828437600081840152601f19601f820116905080830192505050505050509192919290803590602001906401000000008111156107be57600080fd5b8201836020820111156107d057600080fd5b803590602001918460018302840111640100000000831117156107f257600080fd5b91908080601f016020809104026020016040519081016040528093929190818152602001838380828437600081840152601f19601f8201169050808301925050505050505091929192908035906020019092919080359060200190929190505050611f8b565b005b6108906004803603604081101561087057600080fd5b810190808035906020019092919080359060200190929190505050612218565b6040518088815260200187815260200186815260200185815260200184815260200183815260200180602001828103825283818151815260200191508051906020019080838360005b838110156108f45780820151818401526020810190506108d9565b50505050905090810190601f1680156109215780820380516001836020036101000a031916815260200191505b509850505050505050505060405180910390f35b610a856004803603604081101561094b57600080fd5b810190808035906020019064010000000081111561096857600080fd5b82018360208201111561097a57600080fd5b8035906020019184600183028401116401000000008311171561099c57600080fd5b91908080601f016020809104026020016040519081016040528093929190818152602001838380828437600081840152601f19601f820116905080830192505050505050509192919290803590602001906401000000008111156109ff57600080fd5b820183602082011115610a1157600080fd5b80359060200191846001830284011164010000000083111715610a3357600080fd5b91908080601f016020809104026020016040519081016040528093929190818152602001838380828437600081840152601f19601f8201169050808301925050505050505091929192905050506122ff565b604051808215151515815260200191505060405180910390f35b610acb60048036036020811015610ab557600080fd5b81019080803590602001909291905050506123ee565b005b610af960048036036020811015610ae357600080fd5b810190808035906020019092919050505061252b565b60405180878152602001806020018060200180602001868152602001858152602001848103845289818151815260200191508051906020019080838360005b83811015610b53578082015181840152602081019050610b38565b50505050905090810190601f168015610b805780820380516001836020036101000a031916815260200191505b50848103835288818151815260200191508051906020019080838360005b83811015610bb9578082015181840152602081019050610b9e565b50505050905090810190601f168015610be65780820380516001836020036101000a031916815260200191505b50848103825287818151815260200191508051906020019080838360005b83811015610c1f578082015181840152602081019050610c04565b50505050905090810190601f168015610c4c5780820380516001836020036101000a031916815260200191505b50995050505050505050505060405180910390f35b610c9760048036036040811015610c7757600080fd5b81019080803590602001909291908035906020019092919050505061272f565b005b610ca1613266565b604051808273ffffffffffffffffffffffffffffffffffffffff1673ffffffffffffffffffffffffffffffffffffffff16815260200191505060405180910390f35b610ceb61328c565b604051808273ffffffffffffffffffffffffffffffffffffffff1673ffffffffffffffffffffffffffffffffffffffff16815260200191505060405180910390f35b610d5960048036036020811015610d4357600080fd5b81019080803590602001909291905050506132b1565b604051808681526020018573ffffffffffffffffffffffffffffffffffffffff1673ffffffffffffffffffffffffffffffffffffffff1681526020018060200180602001848152602001838103835286818151815260200191508051906020019080838360005b83811015610ddb578082015181840152602081019050610dc0565b50505050905090810190601f168015610e085780820380516001836020036101000a031916815260200191505b50838103825285818151815260200191508051906020019080838360005b83811015610e41578082015181840152602081019050610e26565b50505050905090810190601f168015610e6e5780820380516001836020036101000a031916815260200191505b5097505050505050505060405180910390f35b60076020528060005260406000206000915090508060000160009054906101000a900473ffffffffffffffffffffffffffffffffffffffff16908060010154905082565b60008251118015610ed7575060008151115b610ee057600080fd5b610ee8613437565b600760003373ffffffffffffffffffffffffffffffffffffffff1673ffffffffffffffffffffffffffffffffffffffff1681526020019081526020016000206040518060400160405290816000820160009054906101000a900473ffffffffffffffffffffffffffffffffffffffff1673ffffffffffffffffffffffffffffffffffffffff1673ffffffffffffffffffffffffffffffffffffffff1681526020016001820154815250509050600081602001519050610fa5613467565b600660008381526020019081526020016000206040518060a0016040529081600082015481526020016001820160009054906101000a900473ffffffffffffffffffffffffffffffffffffffff1673ffffffffffffffffffffffffffffffffffffffff1673ffffffffffffffffffffffffffffffffffffffff168152602001600282018054600181600116156101000203166002900480601f0160208091040260200160405190810160405280929190818152602001828054600181600116156101000203166002900480156110bc5780601f10611091576101008083540402835291602001916110bc565b820191906000526020600020905b81548152906001019060200180831161109f57829003601f168201915b50505050508152602001600382018054600181600116156101000203166002900480601f01602080910402602001604051908101604052809291908181526020018280546001816001161561010002031660029004801561115e5780601f106111335761010080835404028352916020019161115e565b820191906000526020600020905b81548152906001019060200180831161114157829003601f168201915b505050505081526020016004820154815250509050600015156111858260400151876122ff565b151514806111a45750600015156111a08260600151866122ff565b1515145b156113ff576040518060a0016040528082600001518152602001826020015173ffffffffffffffffffffffffffffffffffffffff168152602001868152602001826060015181526020018260800151815250600660008481526020019081526020016000206000820151816000015560208201518160010160006101000a81548173ffffffffffffffffffffffffffffffffffffffff021916908373ffffffffffffffffffffffffffffffffffffffff16021790555060408201518160020190805190602001906112769291906134ac565b5060608201518160030190805190602001906112939291906134ac565b50608082015181600401559050507f5bb694d60a295a0f6ea9a8b338035e43dc1ea0f735ed60f6f870e9496f649e93816000015182602001518784606001518560800151604051808681526020018573ffffffffffffffffffffffffffffffffffffffff1673ffffffffffffffffffffffffffffffffffffffff1681526020018060200180602001848152602001838103835286818151815260200191508051906020019080838360005b8381101561135957808201518184015260208101905061133e565b50505050905090810190601f1680156113865780820380516001836020036101000a031916815260200191505b50838103825285818151815260200191508051906020019080838360005b838110156113bf5780820151818401526020810190506113a4565b50505050905090810190601f1680156113ec5780820380516001836020036101000a031916815260200191505b5097505050505050505060405180910390a15b5050505050565b61140e61352c565b6008600084815260200190815260200160002060008381526020019081526020016000206040518060e0016040529081600082015481526020016001820154815260200160028201548152602001600382015481526020016004820154815260200160058201548152602001600682018054600181600116156101000203166002900480601f0160208091040260200160405190810160405280929190818152602001828054600181600116156101000203166002900480156115125780601f106114e757610100808354040283529160200191611512565b820191906000526020600020905b8154815290600101906020018083116114f557829003601f168201915b50505050508152505090506040518060e0016040528082600001518152602001826020015181526020018260400151815260200182606001518152602001826080015181526020018260a0015181526020016040518060400160405280600981526020017f44656c6976657265640000000000000000000000000000000000000000000000815250815250600860008581526020019081526020016000206000848152602001908152602001600020600082015181600001556020820151816001015560408201518160020155606082015181600301556080820151816004015560a0820151816005015560c08201518160060190805190602001906116199291906134ac565b509050507fef6c2817df58501674afe0d9facf1944b055644d8877bb23c2d2da0571851f74816000015182602001518360400151846060015185608001518660a001516040518087815260200186815260200185815260200184815260200183815260200182815260200180602001828103825260098152602001807f44656c697665726564000000000000000000000000000000000000000000000081525060200197505050505050505060405180910390a1505050565b600085511180156116e4575060008451115b80156116f1575060008351115b6116fa57600080fd5b611702613569565b600560008881526020019081526020016000206040518060c001604052908160008201548152602001600182018054600181600116156101000203166002900480601f0160208091040260200160405190810160405280929190818152602001828054600181600116156101000203166002900480156117c35780601f10611798576101008083540402835291602001916117c3565b820191906000526020600020905b8154815290600101906020018083116117a657829003601f168201915b50505050508152602001600282018054600181600116156101000203166002900480601f0160208091040260200160405190810160405280929190818152602001828054600181600116156101000203166002900480156118655780601f1061183a57610100808354040283529160200191611865565b820191906000526020600020905b81548152906001019060200180831161184857829003601f168201915b50505050508152602001600382018054600181600116156101000203166002900480601f0160208091040260200160405190810160405280929190818152602001828054600181600116156101000203166002900480156119075780601f106118dc57610100808354040283529160200191611907565b820191906000526020600020905b8154815290600101906020018083116118ea57829003601f168201915b50505050508152602001600482015481526020016005820154815250509050600081600001519050600015156119418360200151896122ff565b1515148061196057506000151561195c8360400151886122ff565b1515145b8061197c5750600015156119788360600151876122ff565b1515145b8061198b575083826080015114155b8061199a5750828260a0015114155b15611be6576040518060c001604052808281526020018881526020018781526020018681526020018581526020018481525060056000838152602001908152602001600020600082015181600001556020820151816001019080519060200190611a059291906134ac565b506040820151816002019080519060200190611a229291906134ac565b506060820151816003019080519060200190611a3f9291906134ac565b506080820151816004015560a082015181600501559050507fab71ca495700db77ce9ab678bb1efbff2266f18c199d4d5a55dd942236d3ac3881888888888860405180878152602001806020018060200180602001868152602001858152602001848103845289818151815260200191508051906020019080838360005b83811015611ad8578082015181840152602081019050611abd565b50505050905090810190601f168015611b055780820380516001836020036101000a031916815260200191505b50848103835288818151815260200191508051906020019080838360005b83811015611b3e578082015181840152602081019050611b23565b50505050905090810190601f168015611b6b5780820380516001836020036101000a031916815260200191505b50848103825287818151815260200191508051906020019080838360005b83811015611ba4578082015181840152602081019050611b89565b50505050905090810190601f168015611bd15780820380516001836020036101000a031916815260200191505b50995050505050505050505060405180910390a15b5050505050505050565b60008251118015611c02575060008151115b611c0b57600080fd5b6004600081548092919060010191905055506040518060a0016040528060045481526020013373ffffffffffffffffffffffffffffffffffffffff16815260200183815260200182815260200160008152506006600060045481526020019081526020016000206000820151816000015560208201518160010160006101000a81548173ffffffffffffffffffffffffffffffffffffffff021916908373ffffffffffffffffffffffffffffffffffffffff1602179055506040820151816002019080519060200190611cdf9291906134ac565b506060820151816003019080519060200190611cfc9291906134ac565b506080820151816004015590505060405180604001604052803373ffffffffffffffffffffffffffffffffffffffff168152602001600454815250600760003373ffffffffffffffffffffffffffffffffffffffff1673ffffffffffffffffffffffffffffffffffffffff16815260200190815260200160002060008201518160000160006101000a81548173ffffffffffffffffffffffffffffffffffffffff021916908373ffffffffffffffffffffffffffffffffffffffff160217905550602082015181600101559050507f5bb694d60a295a0f6ea9a8b338035e43dc1ea0f735ed60f6f870e9496f649e936004543384846000604051808681526020018573ffffffffffffffffffffffffffffffffffffffff1673ffffffffffffffffffffffffffffffffffffffff1681526020018060200180602001848152602001838103835286818151815260200191508051906020019080838360005b83811015611e75578082015181840152602081019050611e5a565b50505050905090810190601f168015611ea25780820380516001836020036101000a031916815260200191505b50838103825285818151815260200191508051906020019080838360005b83811015611edb578082015181840152602081019050611ec0565b50505050905090810190601f168015611f085780820380516001836020036101000a031916815260200191505b5097505050505050505060405180910390a17fc4bc3ddeb69eba83178f1b7ee16bc7847b2c474d6c4368a58a027f6bf54ff0e433600454604051808373ffffffffffffffffffffffffffffffffffffffff1673ffffffffffffffffffffffffffffffffffffffff1681526020018281526020019250505060405180910390a15050565b60008551118015611f9d575060008451115b8015611faa575060008351115b611fb357600080fd5b6003600081548092919060010191905055506040518060c0016040528060035481526020018681526020018581526020018481526020018381526020018281525060056000600354815260200190815260200160002060008201518160000155602082015181600101908051906020019061202f9291906134ac565b50604082015181600201908051906020019061204c9291906134ac565b5060608201518160030190805190602001906120699291906134ac565b506080820151816004015560a082015181600501559050507fab71ca495700db77ce9ab678bb1efbff2266f18c199d4d5a55dd942236d3ac38600354868686868660405180878152602001806020018060200180602001868152602001858152602001848103845289818151815260200191508051906020019080838360005b838110156121045780820151818401526020810190506120e9565b50505050905090810190601f1680156121315780820380516001836020036101000a031916815260200191505b50848103835288818151815260200191508051906020019080838360005b8381101561216a57808201518184015260208101905061214f565b50505050905090810190601f1680156121975780820380516001836020036101000a031916815260200191505b50848103825287818151815260200191508051906020019080838360005b838110156121d05780820151818401526020810190506121b5565b50505050905090810190601f1680156121fd5780820380516001836020036101000a031916815260200191505b50995050505050505050505060405180910390a15050505050565b600860205281600052604060002060205280600052604060002060009150915050806000015490806001015490806002015490806003015490806004015490806005015490806006018054600181600116156101000203166002900480601f0160208091040260200160405190810160405280929190818152602001828054600181600116156101000203166002900480156122f55780601f106122ca576101008083540402835291602001916122f5565b820191906000526020600020905b8154815290600101906020018083116122d857829003601f168201915b5050505050905087565b6000816040516020018082805190602001908083835b602083106123385780518252602082019150602081019050602083039250612315565b6001836020036101000a03801982511681845116808217855250505050505090500191505060405160208183030381529060405280519060200120836040516020018082805190602001908083835b602083106123aa5780518252602082019150602081019050602083039250612387565b6001836020036101000a0380198251168184511680821785525050505050509050019150506040516020818303038152906040528051906020012014905092915050565b600160009054906101000a900473ffffffffffffffffffffffffffffffffffffffff1673ffffffffffffffffffffffffffffffffffffffff166323b872dd336000809054906101000a900473ffffffffffffffffffffffffffffffffffffffff16846040518463ffffffff1660e01b8152600401808473ffffffffffffffffffffffffffffffffffffffff1673ffffffffffffffffffffffffffffffffffffffff1681526020018373ffffffffffffffffffffffffffffffffffffffff1673ffffffffffffffffffffffffffffffffffffffff1681526020018281526020019350505050602060405180830381600087803b1580156124ec57600080fd5b505af1158015612500573d6000803e3d6000fd5b505050506040513d602081101561251657600080fd5b81019080805190602001909291905050505050565b6005602052806000526040600020600091509050806000015490806001018054600181600116156101000203166002900480601f0160208091040260200160405190810160405280929190818152602001828054600181600116156101000203166002900480156125dd5780601f106125b2576101008083540402835291602001916125dd565b820191906000526020600020905b8154815290600101906020018083116125c057829003601f168201915b505050505090806002018054600181600116156101000203166002900480601f01602080910402602001604051908101604052809291908181526020018280546001816001161561010002031660029004801561267b5780601f106126505761010080835404028352916020019161267b565b820191906000526020600020905b81548152906001019060200180831161265e57829003601f168201915b505050505090806003018054600181600116156101000203166002900480601f0160208091040260200160405190810160405280929190818152602001828054600181600116156101000203166002900480156127195780601f106126ee57610100808354040283529160200191612719565b820191906000526020600020905b8154815290600101906020018083116126fc57829003601f168201915b5050505050908060040154908060050154905086565b612737613437565b600760003373ffffffffffffffffffffffffffffffffffffffff1673ffffffffffffffffffffffffffffffffffffffff1681526020019081526020016000206040518060400160405290816000820160009054906101000a900473ffffffffffffffffffffffffffffffffffffffff1673ffffffffffffffffffffffffffffffffffffffff1673ffffffffffffffffffffffffffffffffffffffff16815260200160018201548152505090506000816020015190506127f4613467565b600660008381526020019081526020016000206040518060a0016040529081600082015481526020016001820160009054906101000a900473ffffffffffffffffffffffffffffffffffffffff1673ffffffffffffffffffffffffffffffffffffffff1673ffffffffffffffffffffffffffffffffffffffff168152602001600282018054600181600116156101000203166002900480601f01602080910402602001604051908101604052809291908181526020018280546001816001161561010002031660029004801561290b5780601f106128e05761010080835404028352916020019161290b565b820191906000526020600020905b8154815290600101906020018083116128ee57829003601f168201915b50505050508152602001600382018054600181600116156101000203166002900480601f0160208091040260200160405190810160405280929190818152602001828054600181600116156101000203166002900480156129ad5780601f10612982576101008083540402835291602001916129ad565b820191906000526020600020905b81548152906001019060200180831161299057829003601f168201915b5050505050815260200160048201548152505090506000600182608001510190506040518060a001604052808481526020013373ffffffffffffffffffffffffffffffffffffffff16815260200183604001518152602001836060015181526020016001846080015101815250600660008581526020019081526020016000206000820151816000015560208201518160010160006101000a81548173ffffffffffffffffffffffffffffffffffffffff021916908373ffffffffffffffffffffffffffffffffffffffff1602179055506040820151816002019080519060200190612a9a9291906134ac565b506060820151816003019080519060200190612ab79291906134ac565b50608082015181600401559050507f5bb694d60a295a0f6ea9a8b338035e43dc1ea0f735ed60f6f870e9496f649e938333846040015185606001516001876080015101604051808681526020018573ffffffffffffffffffffffffffffffffffffffff1673ffffffffffffffffffffffffffffffffffffffff1681526020018060200180602001848152602001838103835286818151815260200191508051906020019080838360005b83811015612b7c578082015181840152602081019050612b61565b50505050905090810190601f168015612ba95780820380516001836020036101000a031916815260200191505b50838103825285818151815260200191508051906020019080838360005b83811015612be2578082015181840152602081019050612bc7565b50505050905090810190601f168015612c0f5780820380516001836020036101000a031916815260200191505b5097505050505050505060405180910390a16002600081548092919060010191905055506040518060e0016040528060025481526020018781526020018481526020018281526020018681526020014281526020016040518060400160405280600781526020017f50656e64696e6700000000000000000000000000000000000000000000000000815250815250600860008581526020019081526020016000206000838152602001908152602001600020600082015181600001556020820151816001015560408201518160020155606082015181600301556080820151816004015560a0820151816005015560c0820151816006019080519060200190612d199291906134ac565b509050507fef6c2817df58501674afe0d9facf1944b055644d8877bb23c2d2da0571851f7460025487858489426040518087815260200186815260200185815260200184815260200183815260200182815260200180602001828103825260078152602001807f50656e64696e670000000000000000000000000000000000000000000000000081525060200197505050505050505060405180910390a1612dbf613569565b600560008881526020019081526020016000206040518060c001604052908160008201548152602001600182018054600181600116156101000203166002900480601f016020809104026020016040519081016040528092919081815260200182805460018160011615610100020316600290048015612e805780601f10612e5557610100808354040283529160200191612e80565b820191906000526020600020905b815481529060010190602001808311612e6357829003601f168201915b50505050508152602001600282018054600181600116156101000203166002900480601f016020809104026020016040519081016040528092919081815260200182805460018160011615610100020316600290048015612f225780601f10612ef757610100808354040283529160200191612f22565b820191906000526020600020905b815481529060010190602001808311612f0557829003601f168201915b50505050508152602001600382018054600181600116156101000203166002900480601f016020809104026020016040519081016040528092919081815260200182805460018160011615610100020316600290048015612fc45780601f10612f9957610100808354040283529160200191612fc4565b820191906000526020600020905b815481529060010190602001808311612fa757829003601f168201915b505050505081526020016004820154815260200160058201548152505090506000868260a001510390506040518060c00160405280836000015181526020018360200151815260200183604001518152602001836060015181526020018360800151815260200182815250600560008a81526020019081526020016000206000820151816000015560208201518160010190805190602001906130689291906134ac565b5060408201518160020190805190602001906130859291906134ac565b5060608201518160030190805190602001906130a29291906134ac565b506080820151816004015560a082015181600501559050507fab71ca495700db77ce9ab678bb1efbff2266f18c199d4d5a55dd942236d3ac38826000015183602001518460400151856060015186608001518660405180878152602001806020018060200180602001868152602001858152602001848103845289818151815260200191508051906020019080838360005b8381101561314f578082015181840152602081019050613134565b50505050905090810190601f16801561317c5780820380516001836020036101000a031916815260200191505b50848103835288818151815260200191508051906020019080838360005b838110156131b557808201518184015260208101905061319a565b50505050905090810190601f1680156131e25780820380516001836020036101000a031916815260200191505b50848103825287818151815260200191508051906020019080838360005b8381101561321b578082015181840152602081019050613200565b50505050905090810190601f1680156132485780820380516001836020036101000a031916815260200191505b50995050505050505050505060405180910390a15050505050505050565b600160009054906101000a900473ffffffffffffffffffffffffffffffffffffffff1681565b6000809054906101000a900473ffffffffffffffffffffffffffffffffffffffff1681565b60066020528060005260406000206000915090508060000154908060010160009054906101000a900473ffffffffffffffffffffffffffffffffffffffff1690806002018054600181600116156101000203166002900480601f0160208091040260200160405190810160405280929190818152602001828054600181600116156101000203166002900480156133895780601f1061335e57610100808354040283529160200191613389565b820191906000526020600020905b81548152906001019060200180831161336c57829003601f168201915b505050505090806003018054600181600116156101000203166002900480601f0160208091040260200160405190810160405280929190818152602001828054600181600116156101000203166002900480156134275780601f106133fc57610100808354040283529160200191613427565b820191906000526020600020905b81548152906001019060200180831161340a57829003601f168201915b5050505050908060040154905085565b6040518060400160405280600073ffffffffffffffffffffffffffffffffffffffff168152602001600081525090565b6040518060a0016040528060008152602001600073ffffffffffffffffffffffffffffffffffffffff1681526020016060815260200160608152602001600081525090565b828054600181600116156101000203166002900490600052602060002090601f016020900481019282601f106134ed57805160ff191683800117855561351b565b8280016001018555821561351b579182015b8281111561351a5782518255916020019190600101906134ff565b5b509050613528919061359f565b5090565b6040518060e00160405280600081526020016000815260200160008152602001600081526020016000815260200160008152602001606081525090565b6040518060c001604052806000815260200160608152602001606081526020016060815260200160008152602001600081525090565b6135c191905b808211156135bd5760008160009055506001016135a5565b5090565b9056fea26469706673582212208b07b5bb09ef5a70e78bb402709bd4b55b3709481f2cb796f416566c4ca2588c64736f6c63430006020033",
  "source": "pragma solidity >=0.6.2;\n\nimport '@openzeppelin/contracts/token/ERC20/IERC20.sol';\n\ncontract Medicare{\n    address public admin;\n    IERC20 public dai;\n\n    uint totalOrders = 0;\n    uint totalMedicines = 0;\n    uint totalClients = 0;\n\n    struct Medicine{\n        uint id;\n        string name;\n        string formulaName;\n        string description;\n        uint price;\n        uint remainingStock;\n    }\n\n    struct Clients{\n        uint id;\n        address payable user;\n        string name;\n        string deliverAddress;\n        uint totalTransaction;\n    }\n\n    struct ClientAddresses{\n        address cAddress;\n        uint id;\n    }\n\n    struct Orders{\n        uint orderId;\n        uint productId;\n        uint clientId;\n        uint clientTransactionId;\n        uint quantity;\n        uint orderDate;\n        string status;\n    }\n\n    event NewMedicine(\n        uint id,\n        string name,\n        string formulaName,\n        string description,\n        uint price,\n        uint remainingStock\n        );\n\n    event NewClient(\n        uint id,\n        address payable user,\n        string name,\n        string deliverAddress,\n        uint totalTransaction\n        );\n\n    event NewClientAddress(\n        address cAddress,\n        uint id\n        );\n\n    event NewOrder(\n        uint orderId,\n        uint productId,\n        uint clientId,\n        uint clientTransactionId,\n        uint quantity,\n        uint orderDate,\n        string status\n        );\n\n    mapping(uint => Medicine) public medicines;\n    mapping(uint => Clients) public clients;\n\tmapping(address => ClientAddresses) public clientAddresses;\n\tmapping(uint => mapping(uint => Orders)) public orders;\n\n\n    constructor(address daiAddress) public {\n        admin = msg.sender;\n        dai = IERC20(daiAddress);\n    }\n\n    function addMedicine(string memory _name, string memory _formulaName, string memory _description, uint _price, uint _stock)public{\n\t\trequire((bytes(_name).length > 0) && (bytes(_formulaName).length > 0) && (bytes(_description).length > 0));\n        totalMedicines++;\n        medicines[totalMedicines] = Medicine(totalMedicines,_name,_formulaName,_description,_price,_stock);\n        emit NewMedicine(totalMedicines,_name,_formulaName,_description,_price,_stock);\n    }\n\n    function addClient(string memory _name, string memory _deliverAddress)public{\n        require((bytes(_name).length > 0) && (bytes(_deliverAddress).length > 0));\n        totalClients++;\n        clients[totalClients] = Clients(totalClients, msg.sender,_name, _deliverAddress, 0);\n        clientAddresses[msg.sender] = ClientAddresses(msg.sender, totalClients);\n        emit NewClient(totalClients, msg.sender,_name, _deliverAddress, 0);\n        emit NewClientAddress(msg.sender, totalClients);\n    }\n\n    function addOrder(uint _medicineId, uint _quantity)public{\n        ClientAddresses memory _user = clientAddresses[msg.sender];\n        uint _userId = _user.id;\n        Clients memory _clients = clients[_userId];\n        uint _orderIndex = _clients.totalTransaction+1;\n        clients[_userId] = Clients(_userId, msg.sender,_clients.name, _clients.deliverAddress, _clients.totalTransaction+1);\n        emit NewClient(_userId, msg.sender,_clients.name, _clients.deliverAddress, _clients.totalTransaction+1);\n        totalOrders++;\n        orders[_userId][_orderIndex] = Orders(totalOrders, _medicineId,_userId,_orderIndex,_quantity,block.timestamp,'Pending');\n        emit NewOrder(totalOrders, _medicineId,_userId,_orderIndex,_quantity,block.timestamp,'Pending');\n        Medicine memory _medicine = medicines[_medicineId];\n        uint _updatedStock = _medicine.remainingStock - _quantity;\n        medicines[_medicineId] = Medicine(_medicine.id, _medicine.name, _medicine.formulaName, _medicine.description, _medicine.price, _updatedStock);\n        emit NewMedicine(_medicine.id, _medicine.name, _medicine.formulaName, _medicine.description, _medicine.price, _updatedStock);\n    }\n\n    function updateMedicine(uint _id, string memory _name, string memory _formulaName, string memory _description, uint _price, uint _stock)public{\n\t\trequire((bytes(_name).length > 0) && (bytes(_formulaName).length > 0) && (bytes(_description).length > 0));\n        Medicine memory _medicine = medicines[_id];\n        uint _medicineId = _medicine.id;\n        if((compareStrings(_medicine.name, _name)==false)||(compareStrings(_medicine.formulaName,_formulaName) == false)||(compareStrings(_medicine.description,_description) == false)||(_medicine.price!=_price)||(_medicine.remainingStock!=_stock)){\n            medicines[_medicineId] = Medicine(_medicineId,_name,_formulaName,_description,_price,_stock);\n            emit NewMedicine(_medicineId,_name,_formulaName,_description,_price,_stock);\n        }\n    }\n\n    function updateClient(string memory _name, string memory _deliverAddress)public{\n        require((bytes(_name).length > 0) && (bytes(_deliverAddress).length > 0));\n        ClientAddresses memory _user = clientAddresses[msg.sender];\n        uint _userId = _user.id;\n        Clients memory _clients = clients[_userId];\n        if((compareStrings(_clients.name, _name)==false)||(compareStrings(_clients.deliverAddress,_deliverAddress) == false)){\n            clients[_userId] = Clients(_clients.id,_clients.user,_name,_clients.deliverAddress,_clients.totalTransaction);\n            emit NewClient(_clients.id,_clients.user,_name,_clients.deliverAddress,_clients.totalTransaction);\n        }\n    }\n    \n    function updateOrder(uint _userId, uint _orderIndex)public{\n        Orders memory _order = orders[_userId][_orderIndex];\n        orders[_userId][_orderIndex] = Orders(_order.orderId,_order.productId,_order.clientId,_order.clientTransactionId,_order.quantity,_order.orderDate,'Delivered');\n        emit NewOrder(_order.orderId,_order.productId,_order.clientId,_order.clientTransactionId,_order.quantity,_order.orderDate,'Delivered');\n    }\n\n    function pay(uint amount)external{\n        dai.transferFrom(msg.sender, admin, amount);\n    }\n    \n\tfunction compareStrings (string memory a, string memory b) public view returns (bool) {\n\t\treturn (keccak256(abi.encodePacked((a))) == keccak256(abi.encodePacked((b))) );\n\t}\n}",
  "sourcePath": "D:/Studies/Projects/Medicare-master/src/contracts/Medicare.sol",
  "compiler": {
    "name": "solc",
    "version": "0.6.2+commit.bacdbe57.Emscripten.clang"
  },
  "schemaVersion": "3.0.20",
  "updatedAt": "2021-06-30T00:34:03.989Z",
  "networkType": "ethereum",
  "devdoc": {
    "methods": {}
  },
  "userdoc": {
    "methods": {}
  }
}